{
  "_format": "hh-sol-artifact-1",
  "contractName": "XOXO",
  "sourceName": "contracts/XOXO.sol",
  "abi": [
    {
      "inputs": [],
      "stateMutability": "nonpayable",
      "type": "constructor"
    },
    {
      "inputs": [],
      "name": "CallerNotOwner",
      "type": "error"
    },
    {
      "inputs": [],
      "name": "CallerNotOwnerNorApproved",
      "type": "error"
    },
    {
      "inputs": [],
      "name": "GameAlreadyStarted",
      "type": "error"
    },
    {
      "inputs": [],
      "name": "InvalidGameId",
      "type": "error"
    },
    {
      "inputs": [],
      "name": "InvalidTokenType",
      "type": "error"
    },
    {
      "inputs": [],
      "name": "MaxSupplyReached",
      "type": "error"
    },
    {
      "inputs": [],
      "name": "MintMaxSupplyReached",
      "type": "error"
    },
    {
      "inputs": [],
      "name": "MintMaxWalletReached",
      "type": "error"
    },
    {
      "inputs": [],
      "name": "MintToZeroAddress",
      "type": "error"
    },
    {
      "inputs": [],
      "name": "MintZeroQuantity",
      "type": "error"
    },
    {
      "inputs": [],
      "name": "NonexistentToken",
      "type": "error"
    },
    {
      "inputs": [],
      "name": "QueryForZeroAddress",
      "type": "error"
    },
    {
      "inputs": [],
      "name": "TokenInGame",
      "type": "error"
    },
    {
      "inputs": [],
      "name": "TransferFromIncorrectOwner",
      "type": "error"
    },
    {
      "inputs": [],
      "name": "TransferToNonERC721ReceiverImplementer",
      "type": "error"
    },
    {
      "inputs": [],
      "name": "TransferToZeroAddress",
      "type": "error"
    },
    {
      "inputs": [],
      "name": "WrongTokenType",
      "type": "error"
    },
    {
      "anonymous": false,
      "inputs": [
        {
          "indexed": true,
          "internalType": "address",
          "name": "owner",
          "type": "address"
        },
        {
          "indexed": true,
          "internalType": "address",
          "name": "spender",
          "type": "address"
        },
        {
          "indexed": true,
          "internalType": "uint256",
          "name": "id",
          "type": "uint256"
        }
      ],
      "name": "Approval",
      "type": "event"
    },
    {
      "anonymous": false,
      "inputs": [
        {
          "indexed": true,
          "internalType": "address",
          "name": "owner",
          "type": "address"
        },
        {
          "indexed": true,
          "internalType": "address",
          "name": "operator",
          "type": "address"
        },
        {
          "indexed": false,
          "internalType": "bool",
          "name": "approved",
          "type": "bool"
        }
      ],
      "name": "ApprovalForAll",
      "type": "event"
    },
    {
      "anonymous": false,
      "inputs": [
        {
          "indexed": true,
          "internalType": "address",
          "name": "previousOwner",
          "type": "address"
        },
        {
          "indexed": true,
          "internalType": "address",
          "name": "newOwner",
          "type": "address"
        }
      ],
      "name": "OwnershipTransferred",
      "type": "event"
    },
    {
      "anonymous": false,
      "inputs": [
        {
          "indexed": true,
          "internalType": "address",
          "name": "from",
          "type": "address"
        },
        {
          "indexed": true,
          "internalType": "address",
          "name": "to",
          "type": "address"
        },
        {
          "indexed": true,
          "internalType": "uint256",
          "name": "id",
          "type": "uint256"
        }
      ],
      "name": "Transfer",
      "type": "event"
    },
    {
      "inputs": [
        {
          "internalType": "uint256",
          "name": "tokenId",
          "type": "uint256"
        }
      ],
      "name": "_tokenDataOf",
      "outputs": [
        {
          "components": [
            {
              "internalType": "address",
              "name": "owner",
              "type": "address"
            },
            {
              "internalType": "uint40",
              "name": "playStart",
              "type": "uint40"
            },
            {
              "internalType": "uint32",
              "name": "totalPlayed",
              "type": "uint32"
            },
            {
              "internalType": "uint8",
              "name": "XorO",
              "type": "uint8"
            },
            {
              "internalType": "bool",
              "name": "inPlay",
              "type": "bool"
            },
            {
              "internalType": "bool",
              "name": "nextTokenDataSet",
              "type": "bool"
            },
            {
              "internalType": "uint256[]",
              "name": "scoreHistory",
              "type": "uint256[]"
            }
          ],
          "internalType": "struct ERC721G.TokenData",
          "name": "tokenData",
          "type": "tuple"
        }
      ],
      "stateMutability": "view",
      "type": "function"
    },
    {
      "inputs": [
        {
          "internalType": "address",
          "name": "spender",
          "type": "address"
        },
        {
          "internalType": "uint256",
          "name": "tokenId",
          "type": "uint256"
        }
      ],
      "name": "approve",
      "outputs": [],
      "stateMutability": "nonpayable",
      "type": "function"
    },
    {
      "inputs": [
        {
          "internalType": "address",
          "name": "owner",
          "type": "address"
        }
      ],
      "name": "balanceOf",
      "outputs": [
        {
          "internalType": "uint256",
          "name": "",
          "type": "uint256"
        }
      ],
      "stateMutability": "view",
      "type": "function"
    },
    {
      "inputs": [
        {
          "internalType": "uint256",
          "name": "_board",
          "type": "uint256"
        }
      ],
      "name": "checkGameState",
      "outputs": [
        {
          "internalType": "uint256",
          "name": "",
          "type": "uint256"
        }
      ],
      "stateMutability": "pure",
      "type": "function"
    },
    {
      "inputs": [
        {
          "internalType": "uint256",
          "name": "_tokenId",
          "type": "uint256"
        }
      ],
      "name": "createNewGame",
      "outputs": [],
      "stateMutability": "nonpayable",
      "type": "function"
    },
    {
      "inputs": [
        {
          "internalType": "uint256",
          "name": "_gameId",
          "type": "uint256"
        },
        {
          "internalType": "uint256",
          "name": "_tokenId",
          "type": "uint256"
        }
      ],
      "name": "endGame",
      "outputs": [],
      "stateMutability": "nonpayable",
      "type": "function"
    },
    {
      "inputs": [],
      "name": "getAllGames",
      "outputs": [
        {
          "internalType": "uint256[]",
          "name": "",
          "type": "uint256[]"
        }
      ],
      "stateMutability": "view",
      "type": "function"
    },
    {
      "inputs": [
        {
          "internalType": "uint256",
          "name": "",
          "type": "uint256"
        }
      ],
      "name": "getApproved",
      "outputs": [
        {
          "internalType": "address",
          "name": "",
          "type": "address"
        }
      ],
      "stateMutability": "view",
      "type": "function"
    },
    {
      "inputs": [
        {
          "internalType": "uint256",
          "name": "_gameId",
          "type": "uint256"
        }
      ],
      "name": "getBoard",
      "outputs": [
        {
          "internalType": "uint256",
          "name": "",
          "type": "uint256"
        }
      ],
      "stateMutability": "view",
      "type": "function"
    },
    {
      "inputs": [
        {
          "internalType": "uint256",
          "name": "_gameId",
          "type": "uint256"
        }
      ],
      "name": "getGame",
      "outputs": [
        {
          "internalType": "uint256",
          "name": "",
          "type": "uint256"
        }
      ],
      "stateMutability": "view",
      "type": "function"
    },
    {
      "inputs": [
        {
          "internalType": "uint256",
          "name": "_tokenId",
          "type": "uint256"
        }
      ],
      "name": "getImage",
      "outputs": [
        {
          "internalType": "string",
          "name": "",
          "type": "string"
        }
      ],
      "stateMutability": "view",
      "type": "function"
    },
    {
      "inputs": [
        {
          "internalType": "uint256",
          "name": "_gameId",
          "type": "uint256"
        }
      ],
      "name": "getPlayerTurn",
      "outputs": [
        {
          "internalType": "uint256",
          "name": "",
          "type": "uint256"
        }
      ],
      "stateMutability": "view",
      "type": "function"
    },
    {
      "inputs": [
        {
          "internalType": "uint256",
          "name": "_gameId",
          "type": "uint256"
        }
      ],
      "name": "getTimestamp",
      "outputs": [
        {
          "internalType": "uint256",
          "name": "",
          "type": "uint256"
        }
      ],
      "stateMutability": "view",
      "type": "function"
    },
    {
      "inputs": [
        {
          "internalType": "uint256",
          "name": "_gameId",
          "type": "uint256"
        }
      ],
      "name": "getTokensInPlay",
      "outputs": [
        {
          "internalType": "uint16",
          "name": "",
          "type": "uint16"
        },
        {
          "internalType": "uint16",
          "name": "",
          "type": "uint16"
        }
      ],
      "stateMutability": "view",
      "type": "function"
    },
    {
      "inputs": [
        {
          "internalType": "uint256",
          "name": "_gameId",
          "type": "uint256"
        }
      ],
      "name": "getWin",
      "outputs": [
        {
          "internalType": "uint256",
          "name": "",
          "type": "uint256"
        }
      ],
      "stateMutability": "view",
      "type": "function"
    },
    {
      "inputs": [
        {
          "internalType": "address",
          "name": "",
          "type": "address"
        },
        {
          "internalType": "address",
          "name": "",
          "type": "address"
        }
      ],
      "name": "isApprovedForAll",
      "outputs": [
        {
          "internalType": "bool",
          "name": "",
          "type": "bool"
        }
      ],
      "stateMutability": "view",
      "type": "function"
    },
    {
      "inputs": [
        {
          "internalType": "uint256",
          "name": "_gameId",
          "type": "uint256"
        },
        {
          "internalType": "uint256",
          "name": "_tokenId",
          "type": "uint256"
        }
      ],
      "name": "joinGame",
      "outputs": [],
      "stateMutability": "nonpayable",
      "type": "function"
    },
    {
      "inputs": [],
      "name": "lockupPeriod",
      "outputs": [
        {
          "internalType": "uint256",
          "name": "",
          "type": "uint256"
        }
      ],
      "stateMutability": "view",
      "type": "function"
    },
    {
      "inputs": [
        {
          "internalType": "uint256",
          "name": "_quantity",
          "type": "uint256"
        },
        {
          "internalType": "uint256",
          "name": "_type",
          "type": "uint256"
        }
      ],
      "name": "mint",
      "outputs": [],
      "stateMutability": "payable",
      "type": "function"
    },
    {
      "inputs": [
        {
          "internalType": "address",
          "name": "",
          "type": "address"
        }
      ],
      "name": "minted",
      "outputs": [
        {
          "internalType": "uint256",
          "name": "",
          "type": "uint256"
        }
      ],
      "stateMutability": "view",
      "type": "function"
    },
    {
      "inputs": [],
      "name": "name",
      "outputs": [
        {
          "internalType": "string",
          "name": "",
          "type": "string"
        }
      ],
      "stateMutability": "view",
      "type": "function"
    },
    {
      "inputs": [
        {
          "internalType": "address",
          "name": "user",
          "type": "address"
        }
      ],
      "name": "numInPlay",
      "outputs": [
        {
          "internalType": "uint256",
          "name": "",
          "type": "uint256"
        }
      ],
      "stateMutability": "view",
      "type": "function"
    },
    {
      "inputs": [
        {
          "internalType": "address",
          "name": "user",
          "type": "address"
        }
      ],
      "name": "numMinted",
      "outputs": [
        {
          "internalType": "uint256",
          "name": "",
          "type": "uint256"
        }
      ],
      "stateMutability": "view",
      "type": "function"
    },
    {
      "inputs": [
        {
          "internalType": "address",
          "name": "user",
          "type": "address"
        }
      ],
      "name": "numOwned",
      "outputs": [
        {
          "internalType": "uint256",
          "name": "",
          "type": "uint256"
        }
      ],
      "stateMutability": "view",
      "type": "function"
    },
    {
      "inputs": [],
      "name": "owner",
      "outputs": [
        {
          "internalType": "address",
          "name": "",
          "type": "address"
        }
      ],
      "stateMutability": "view",
      "type": "function"
    },
    {
      "inputs": [
        {
          "internalType": "uint256",
          "name": "tokenId",
          "type": "uint256"
        }
      ],
      "name": "ownerOf",
      "outputs": [
        {
          "internalType": "address",
          "name": "",
          "type": "address"
        }
      ],
      "stateMutability": "view",
      "type": "function"
    },
    {
      "inputs": [
        {
          "internalType": "uint256",
          "name": "_gameId",
          "type": "uint256"
        },
        {
          "internalType": "uint256",
          "name": "_index",
          "type": "uint256"
        }
      ],
      "name": "playMove",
      "outputs": [],
      "stateMutability": "nonpayable",
      "type": "function"
    },
    {
      "inputs": [],
      "name": "renounceOwnership",
      "outputs": [],
      "stateMutability": "nonpayable",
      "type": "function"
    },
    {
      "inputs": [
        {
          "internalType": "address",
          "name": "from",
          "type": "address"
        },
        {
          "internalType": "address",
          "name": "to",
          "type": "address"
        },
        {
          "internalType": "uint256",
          "name": "tokenId",
          "type": "uint256"
        }
      ],
      "name": "safeTransferFrom",
      "outputs": [],
      "stateMutability": "nonpayable",
      "type": "function"
    },
    {
      "inputs": [
        {
          "internalType": "address",
          "name": "from",
          "type": "address"
        },
        {
          "internalType": "address",
          "name": "to",
          "type": "address"
        },
        {
          "internalType": "uint256",
          "name": "tokenId",
          "type": "uint256"
        },
        {
          "internalType": "bytes",
          "name": "data",
          "type": "bytes"
        }
      ],
      "name": "safeTransferFrom",
      "outputs": [],
      "stateMutability": "nonpayable",
      "type": "function"
    },
    {
      "inputs": [
        {
          "internalType": "address",
          "name": "operator",
          "type": "address"
        },
        {
          "internalType": "bool",
          "name": "approved",
          "type": "bool"
        }
      ],
      "name": "setApprovalForAll",
      "outputs": [],
      "stateMutability": "nonpayable",
      "type": "function"
    },
    {
      "inputs": [
        {
          "internalType": "uint256",
          "name": "_timeDelta",
          "type": "uint256"
        }
      ],
      "name": "setLockupPeriod",
      "outputs": [],
      "stateMutability": "nonpayable",
      "type": "function"
    },
    {
      "inputs": [],
      "name": "supplyO",
      "outputs": [
        {
          "internalType": "uint256",
          "name": "",
          "type": "uint256"
        }
      ],
      "stateMutability": "view",
      "type": "function"
    },
    {
      "inputs": [],
      "name": "supplyX",
      "outputs": [
        {
          "internalType": "uint256",
          "name": "",
          "type": "uint256"
        }
      ],
      "stateMutability": "view",
      "type": "function"
    },
    {
      "inputs": [
        {
          "internalType": "bytes4",
          "name": "interfaceId",
          "type": "bytes4"
        }
      ],
      "name": "supportsInterface",
      "outputs": [
        {
          "internalType": "bool",
          "name": "",
          "type": "bool"
        }
      ],
      "stateMutability": "view",
      "type": "function"
    },
    {
      "inputs": [],
      "name": "symbol",
      "outputs": [
        {
          "internalType": "string",
          "name": "",
          "type": "string"
        }
      ],
      "stateMutability": "view",
      "type": "function"
    },
    {
      "inputs": [
        {
          "internalType": "address",
          "name": "user",
          "type": "address"
        },
        {
          "internalType": "uint256",
          "name": "type_",
          "type": "uint256"
        }
      ],
      "name": "tokenIdsOf",
      "outputs": [
        {
          "internalType": "uint256[]",
          "name": "",
          "type": "uint256[]"
        }
      ],
      "stateMutability": "view",
      "type": "function"
    },
    {
      "inputs": [
        {
          "internalType": "uint256",
          "name": "_tokenId",
          "type": "uint256"
        }
      ],
      "name": "tokenURI",
      "outputs": [
        {
          "internalType": "string",
          "name": "",
          "type": "string"
        }
      ],
      "stateMutability": "view",
      "type": "function"
    },
    {
      "inputs": [
        {
          "internalType": "uint256",
          "name": "",
          "type": "uint256"
        }
      ],
      "name": "tokensAndGames",
      "outputs": [
        {
          "internalType": "uint256",
          "name": "",
          "type": "uint256"
        }
      ],
      "stateMutability": "view",
      "type": "function"
    },
    {
      "inputs": [],
      "name": "totalNumInPlay",
      "outputs": [
        {
          "internalType": "uint256",
          "name": "",
          "type": "uint256"
        }
      ],
      "stateMutability": "view",
      "type": "function"
    },
    {
      "inputs": [],
      "name": "totalSupply",
      "outputs": [
        {
          "internalType": "uint256",
          "name": "",
          "type": "uint256"
        }
      ],
      "stateMutability": "view",
      "type": "function"
    },
    {
      "inputs": [],
      "name": "totalSupplyXandO",
      "outputs": [
        {
          "internalType": "uint256",
          "name": "",
          "type": "uint256"
        },
        {
          "internalType": "uint256",
          "name": "",
          "type": "uint256"
        }
      ],
      "stateMutability": "view",
      "type": "function"
    },
    {
      "inputs": [
        {
          "internalType": "address",
          "name": "from",
          "type": "address"
        },
        {
          "internalType": "address",
          "name": "to",
          "type": "address"
        },
        {
          "internalType": "uint256",
          "name": "tokenId",
          "type": "uint256"
        }
      ],
      "name": "transferFrom",
      "outputs": [],
      "stateMutability": "nonpayable",
      "type": "function"
    },
    {
      "inputs": [
        {
          "internalType": "address",
          "name": "newOwner",
          "type": "address"
        }
      ],
      "name": "transferOwnership",
      "outputs": [],
      "stateMutability": "nonpayable",
      "type": "function"
    },
    {
      "inputs": [
        {
          "internalType": "uint256",
          "name": "tokenId",
          "type": "uint256"
        }
      ],
      "name": "trueOwnerOf",
      "outputs": [
        {
          "internalType": "address",
          "name": "",
          "type": "address"
        }
      ],
      "stateMutability": "view",
      "type": "function"
    },
    {
      "inputs": [],
      "name": "typeMaxSupply",
      "outputs": [
        {
          "internalType": "uint256",
          "name": "",
          "type": "uint256"
        }
      ],
      "stateMutability": "view",
      "type": "function"
    }
  ],
  "bytecode": "0x60e06040526105dc600d5562015180600e553480156200001e57600080fd5b5060405180604001604052806004815260200163584f584f60e01b81525060405180604001604052806004815260200163584f584f60e01b8152506001610bb8600284600090805190602001906200007892919062000106565b5083516200008e90600190602087019062000106565b5060a09190915260c05260805250620000a9905033620000b4565b6001600955620001e9565b600880546001600160a01b038381166001600160a01b0319831681179093556040519116919082907f8be0079c531659141344cd1fd0a4f28419497f9722a3daafe3b4186f6b6457e090600090a35050565b8280546200011490620001ac565b90600052602060002090601f01602090048101928262000138576000855562000183565b82601f106200015357805160ff191683800117855562000183565b8280016001018555821562000183579182015b828111156200018357825182559160200191906001019062000166565b506200019192915062000195565b5090565b5b8082111562000191576000815560010162000196565b600181811c90821680620001c157607f821691505b60208210811415620001e357634e487b7160e01b600052602260045260246000fd5b50919050565b60805160a05160c051614ce96200024360003960006136ad015260006136510152600081816127030152818161272501528181612807015281816128310152818161358101528181613a710152613aa70152614ce96000f3fe6080604052600436106102fd5760003560e01c80638da5cb5b1161018f578063b88d4fde116100e1578063da9a90891161008a578063e985e9c511610064578063e985e9c51461095c578063ee947a7c14610997578063f2fde38b146109ad57600080fd5b8063da9a9089146108f2578063db1c45f914610927578063e8fcf9ed1461093c57600080fd5b8063c87b56dd116100bb578063c87b56dd14610890578063c9be651b146108b0578063d607a1a6146108dd57600080fd5b8063b88d4fde1461083a578063bc1b41d41461085a578063c771c3901461087057600080fd5b8063a2a13def11610143578063ad3afd601161011d578063ad3afd6014610795578063b60b9fcb146107e3578063b633620c1461080357600080fd5b8063a2a13def14610707578063a2f77bcc1461071d578063a36456601461074a57600080fd5b80639a7e4cea116101745780639a7e4cea146106a75780639f98985d146106c7578063a22cb465146106e757600080fd5b80638da5cb5b1461067457806395d89b411461069257600080fd5b806342842e0e1161025357806370a08231116101fc5780637365f48d116101d65780637365f48d146105ff57806381d604831461062757806388486f861461065457600080fd5b806370a08231146105aa578063715018a6146105ca5780637168fcea146105df57600080fd5b80635d4dd32b1161022d5780635d4dd32b146105475780636352211e1461055d5780636c08c6b11461057d57600080fd5b806342842e0e146104d257806345e09e54146104f257806347ffd8971461052757600080fd5b80631b2ef1ca116102b557806323b872dd1161028f57806323b872dd146104725780632607aafa14610492578063412c0c2d146104b257600080fd5b80631b2ef1ca146103ec5780631e7269c5146103ff57806320fc7eb21461042c57600080fd5b8063081812fc116102e6578063081812fc14610359578063095ea7b3146103a757806318160ddd146103c957600080fd5b806301ffc9a71461030257806306fdde0314610337575b600080fd5b34801561030e57600080fd5b5061032261031d3660046140b3565b6109cd565b60405190151581526020015b60405180910390f35b34801561034357600080fd5b5061034c610ab2565b60405161032e9190614146565b34801561036557600080fd5b5061038f610374366004614159565b6002602052600090815260409020546001600160a01b031681565b6040516001600160a01b03909116815260200161032e565b3480156103b357600080fd5b506103c76103c236600461418e565b610b40565b005b3480156103d557600080fd5b506103de610c45565b60405190815260200161032e565b6103c76103fa3660046141b8565b610c5c565b34801561040b57600080fd5b506103de61041a3660046141da565b600b6020526000908152604090205481565b34801561043857600080fd5b506103de6104473660046141da565b6001600160a01b031660009081526007602052604090205465010000000000900464ffffffffff1690565b34801561047e57600080fd5b506103c761048d3660046141f5565b610d8f565b34801561049e57600080fd5b5061034c6104ad366004614159565b6113fc565b3480156104be57600080fd5b506103de6104cd366004614159565b611a96565b3480156104de57600080fd5b506103c76104ed3660046141f5565b611ab9565b3480156104fe57600080fd5b506103de61050d366004614159565b6000908152600a602052604090205460231c6203ffff1690565b34801561053357600080fd5b506103c7610542366004614159565b611ad9565b34801561055357600080fd5b506103de60045481565b34801561056957600080fd5b5061038f610578366004614159565b611bea565b34801561058957600080fd5b5061059d610598366004614159565b611c10565b60405161032e919061426c565b3480156105b657600080fd5b506103de6105c53660046141da565b611e18565b3480156105d657600080fd5b506103c7611e7d565b3480156105eb57600080fd5b506103de6105fa3660046141da565b611efd565b34801561060b57600080fd5b506004546005546040805192835260208301919091520161032e565b34801561063357600080fd5b506103de610642366004614159565b600a6020526000908152604090205481565b34801561066057600080fd5b5061038f61066f366004614159565b611f6f565b34801561068057600080fd5b506008546001600160a01b031661038f565b34801561069e57600080fd5b5061034c611f81565b3480156106b357600080fd5b506103de6106c2366004614159565b611f8e565b3480156106d357600080fd5b506103c76106e23660046141b8565b612011565b3480156106f357600080fd5b506103c76107023660046142f3565b6120cb565b34801561071357600080fd5b506103de60055481565b34801561072957600080fd5b506103de610738366004614159565b6000908152600a602052604090205490565b34801561075657600080fd5b506103de6107653660046141da565b6001600160a01b03166000908152600760205260409020546a0100000000000000000000900464ffffffffff1690565b3480156107a157600080fd5b506107c86107b0366004614159565b6000908152600a602052604090205490601082901c90565b6040805161ffff93841681529290911660208301520161032e565b3480156107ef57600080fd5b506103c76107fe3660046141b8565b612155565b34801561080f57600080fd5b506103de61081e366004614159565b6000908152600a602052604090205460381c64ffffffffff1690565b34801561084657600080fd5b506103c761085536600461435e565b612365565b34801561086657600080fd5b506103de600d5481565b34801561087c57600080fd5b506103c761088b366004614159565b612476565b34801561089c57600080fd5b5061034c6108ab366004614159565b6124ef565b3480156108bc57600080fd5b506108d06108cb36600461418e565b612514565b60405161032e9190614458565b3480156108e957600080fd5b506103de612802565b3480156108fe57600080fd5b506103de61090d366004614159565b6000908152600a60209081526040909120546001911c1690565b34801561093357600080fd5b506108d061287f565b34801561094857600080fd5b506103c76109573660046141b8565b612917565b34801561096857600080fd5b5061032261097736600461449c565b600360209081526000928352604080842090915290825290205460ff1681565b3480156109a357600080fd5b506103de600e5481565b3480156109b957600080fd5b506103c76109c83660046141da565b6133f3565b60007f01ffc9a7000000000000000000000000000000000000000000000000000000007fffffffff0000000000000000000000000000000000000000000000000000000083161480610a6057507f80ac58cd000000000000000000000000000000000000000000000000000000007fffffffff000000000000000000000000000000000000000000000000000000008316145b80610aac57507f5b5e139f000000000000000000000000000000000000000000000000000000007fffffffff000000000000000000000000000000000000000000000000000000008316145b92915050565b60008054610abf906144cf565b80601f0160208091040260200160405190810160405280929190818152602001828054610aeb906144cf565b8015610b385780601f10610b0d57610100808354040283529160200191610b38565b820191906000526020600020905b815481529060010190602001808311610b1b57829003601f168201915b505050505081565b6000610b4b82611c10565b8051909150336001600160a01b03821614801590610b8d57506001600160a01b038116600090815260036020908152604080832033845290915290205460ff16155b80610b99575081608001515b15610bd0576040517f4fb505aa00000000000000000000000000000000000000000000000000000000815260040160405180910390fd5b60008381526002602052604080822080547fffffffffffffffffffffffff0000000000000000000000000000000000000000166001600160a01b0388811691821790925591518693918516917f8c5be1e5ebec7d5bd14f71427d1e84f3dd0314c0f7b2291e5b200ac8c7c3b92591a450505050565b6000600554600454610c57919061454c565b905090565b60026009541415610cce576040517f08c379a000000000000000000000000000000000000000000000000000000000815260206004820152601f60248201527f5265656e7472616e637947756172643a207265656e7472616e742063616c6c0060448201526064015b60405180910390fd5b600260095580158015610cef5750600d5482600454610ced919061454c565b115b15610d26576040517fd05cb60900000000000000000000000000000000000000000000000000000000815260040160405180910390fd5b806001148015610d445750600d5482600554610d42919061454c565b115b15610d7b576040517fd05cb60900000000000000000000000000000000000000000000000000000000815260040160405180910390fd5b610d86338383613509565b50506001600955565b6000610d9a82611c10565b80519091506000336001600160a01b0383161480610ddb57506001600160a01b038216600090815260036020908152604080832033845290915290205460ff165b80610dfc57506000848152600260205260409020546001600160a01b031633145b905080610e35576040517f4fb505aa00000000000000000000000000000000000000000000000000000000815260040160405180910390fd5b6001600160a01b038516610e75576040517fea553b3400000000000000000000000000000000000000000000000000000000815260040160405180910390fd5b856001600160a01b0316826001600160a01b031614610ec0576040517fa114810000000000000000000000000000000000000000000000000000000000815260040160405180910390fd5b826080015115610efc576040517f4637159500000000000000000000000000000000000000000000000000000000815260040160405180910390fd5b600084815260026020526040902080547fffffffffffffffffffffffff000000000000000000000000000000000000000016905560a0830151158015610f5b5750600184016000908152600660205260409020546001600160a01b0316155b8015610f6b5750610f6b84613a6c565b1561114157600084815260066020908152604091829020855181548388015194880151606089015160808a015160a08b015115157f0100000000000000000000000000000000000000000000000000000000000000027effffffffffffffffffffffffffffffffffffffffffffffffffffffffffffff9115157e0100000000000000000000000000000000000000000000000000000000000002919091167dffffffffffffffffffffffffffffffffffffffffffffffffffffffffffff60ff9093167d010000000000000000000000000000000000000000000000000000000000027fffff00ffffffffffffffffffffffffffffffffffffffffffffffffffffffffff63ffffffff90951679010000000000000000000000000000000000000000000000000002949094167fffff0000000000ffffffffffffffffffffffffffffffffffffffffffffffffff64ffffffffff909a1674010000000000000000000000000000000000000000027fffffffffffffff000000000000000000000000000000000000000000000000009096166001600160a01b039097169690961794909417979097169390931717919091161792909217825560c0850151805186939261113d926001850192910190614025565b5050505b600160a084018181526001600160a01b03808816865260008781526006602090815260409182902088518154838b0151948b015160608c015160808d0151985115157f0100000000000000000000000000000000000000000000000000000000000000027effffffffffffffffffffffffffffffffffffffffffffffffffffffffffffff9915157e0100000000000000000000000000000000000000000000000000000000000002999099167dffffffffffffffffffffffffffffffffffffffffffffffffffffffffffff60ff9092167d010000000000000000000000000000000000000000000000000000000000027fffff00ffffffffffffffffffffffffffffffffffffffffffffffffffffffffff63ffffffff90941679010000000000000000000000000000000000000000000000000002939093167fffff0000000000ffffffffffffffffffffffffffffffffffffffffffffffffff64ffffffffff90991674010000000000000000000000000000000000000000027fffffffffffffff00000000000000000000000000000000000000000000000000909516959099169490941792909217959095169590951793909317939093169190911792909217815560c086015180518794929361131e938501920190614025565b5050506001600160a01b0386166000908152600760205260408120805464ffffffffff169161134c83614564565b82546101009290920a64ffffffffff8181021990931691831602179091556001600160a01b038716600090815260076020526040812080549092169250611392836145a3565b91906101000a81548164ffffffffff021916908364ffffffffff1602179055505083856001600160a01b0316876001600160a01b03167fddf252ad1be2c89b69c2b068fc378daa952ba7f163c4a11628f55a4df523b3ef60405160405180910390a4505050505050565b606061140782613a6c565b61141057600080fd5b600061141b83611c10565b905060008160c0015190506000826040015163ffffffff16905060008360600151905060006040518060c0016040528060858152602001614c2f608591399050600060ff8316156114a1576040518060400160405280600181526020017f4f000000000000000000000000000000000000000000000000000000000000008152506114d8565b6040518060400160405280600181526020017f58000000000000000000000000000000000000000000000000000000000000008152505b905060005b848110156117f45760006114f26080876145f7565b9050600061150160808461460b565b90506000600182901b89848151811061151c5761151c61461f565b6020026020010151901c6003169050600060318561153a919061460b565b61154590601461464e565b61155090600a61454c565b9050600061155f6031876145f7565b61156a90601961464e565b61157590601e61454c565b90506000836001146115bc576040518060400160405280600181526020017f58000000000000000000000000000000000000000000000000000000000000008152506115f3565b6040518060400160405280600181526020017f4f000000000000000000000000000000000000000000000000000000000000008152505b9050886117b96116406040518060400160405280600181526020017f780000000000000000000000000000000000000000000000000000000000000081525061163b87613ad3565b613c30565b6116826040518060400160405280600181526020017f790000000000000000000000000000000000000000000000000000000000000081525061163b87613ad3565b6116f66040518060400160405280600981526020017f666f6e742d73697a6500000000000000000000000000000000000000000000008152506040518060400160405280600281526020017f3330000000000000000000000000000000000000000000000000000000000000815250613c30565b61176a6040518060400160405280600481526020017f66696c6c000000000000000000000000000000000000000000000000000000008152506040518060400160405280600581526020017f626c61636b000000000000000000000000000000000000000000000000000000815250613c30565b60405160200161177d949392919061468b565b60405160208183030381529060405261179584613c5c565b6040516020016117a591906146e2565b604051602081830303815290604052613c85565b6040516020016117ca9291906146fe565b604051602081830303815290604052985050505050505080806117ec9061472d565b9150506114dd565b50816119c961186d6040518060400160405280600181526020017f78000000000000000000000000000000000000000000000000000000000000008152506040518060400160405280600381526020017f3238300000000000000000000000000000000000000000000000000000000000815250613c30565b6118e16040518060400160405280600181526020017f79000000000000000000000000000000000000000000000000000000000000008152506040518060400160405280600381526020017f3730300000000000000000000000000000000000000000000000000000000000815250613c30565b6119556040518060400160405280600981526020017f666f6e742d73697a6500000000000000000000000000000000000000000000008152506040518060400160405280600381526020017f3630300000000000000000000000000000000000000000000000000000000000815250613c30565b61176a6040518060400160405280600481526020017f66696c6c000000000000000000000000000000000000000000000000000000008152506040518060400160405280600581526020017f7768697465000000000000000000000000000000000000000000000000000000815250613c30565b6040516020016119da929190614766565b604080517fffffffffffffffffffffffffffffffffffffffffffffffffffffffffffffffe0818403018152828201909152601a82527f646174613a696d6167652f7376672b786d6c3b6261736536342c000000000000602083015292506000611a4284613cc7565b905060008282604051602001611a599291906146fe565b604080517fffffffffffffffffffffffffffffffffffffffffffffffffffffffffffffffe08184030181529190529b9a5050505050505050505050565b6000818152600a60209081526040822054901c611ab281611f8e565b9392505050565b611ad483838360405180602001604052806000815250612365565b505050565b6000611ae482611c10565b80519091506001600160a01b03163314611b2a576040517f5cd8319200000000000000000000000000000000000000000000000000000000815260040160405180910390fd5b806080015115611b66576040517f4637159500000000000000000000000000000000000000000000000000000000815260040160405180910390fd5b600c805460009182611b778361472d565b90915550600084815260066020908152604080832080547fff00ffffffffffffffffffffffffffffffffffffffffffffffffffffffffffff167e01000000000000000000000000000000000000000000000000000000000000179055928252600a9052204260351b939093179092555050565b600080611bf683611c10565b90508060800151611c08578051611ab2565b309392505050565b6040805160e08101825260008082526020820181905291810182905260608082018390526080820183905260a082019290925260c0810191909152611c5482613a6c565b611c8a576040517fb1d04f0800000000000000000000000000000000000000000000000000000000815260040160405180910390fd5b815b600081815260066020908152604091829020825160e08101845281546001600160a01b038116825264ffffffffff740100000000000000000000000000000000000000008204168285015263ffffffff7901000000000000000000000000000000000000000000000000008204168286015260ff7d0100000000000000000000000000000000000000000000000000000000008204811660608401527e0100000000000000000000000000000000000000000000000000000000000082048116151560808401527f010000000000000000000000000000000000000000000000000000000000000090910416151560a08201526001820180548551818602810186019096528086529194929360c08601939290830182828015611dce57602002820191906000526020600020905b815481526020019060010190808311611dba575b5050509190925250508151919350506001600160a01b031615611e065780831415611df95750919050565b5060006080820152919050565b80611e10816147bd565b915050611c8c565b60006001600160a01b038216611e5a576040517fcbe7266800000000000000000000000000000000000000000000000000000000815260040160405180910390fd5b506001600160a01b031660009081526007602052604090205464ffffffffff1690565b6008546001600160a01b03163314611ef1576040517f08c379a000000000000000000000000000000000000000000000000000000000815260206004820181905260248201527f4f776e61626c653a2063616c6c6572206973206e6f7420746865206f776e65726044820152606401610cc5565b611efb6000613e1b565b565b6001600160a01b03811660009081526007602090815260408083208151606081018352905464ffffffffff8082168084526501000000000083048216958401959095526a01000000000000000000009091041691810182905291611f6191906147f2565b64ffffffffff169392505050565b6000611f7a82611c10565b5192915050565b60018054610abf906144cf565b60031c6000700fc003f00ccc30c30c30f03030c30c003f621904805b8115612007576000826203ffff169050808186161415611fcf57506002949350505050565b611fda6003826145f7565b8186161415611fee57506001949350505050565b50600781169390931c9260129190911c9060031c611faa565b5060009392505050565b6000828152600a6020908152604082205491906120309083901c611f8e565b9050600061203d84611c10565b905082601081901c603582901c61ffff831687148015906120625750868261ffff1614155b1561206c57600080fd5b83516001600160a01b0316331461208257600080fd5b600e5461209664ffffffffff831642614812565b10156120a157600080fd5b84156120ac57600080fd5b50505060009485525050600a6020526040909220600190921790915550565b3360008181526003602090815260408083206001600160a01b0387168085529083529281902080547fffffffffffffffffffffffffffffffffffffffffffffffffffffffffffffff001686151590811790915590519081529192917f17307eab39ab6107e8899845ad3d59bd9653f200f220920489ca2b5937696c31910160405180910390a35050565b6000828152600a602052604081205490819061217461ffff8316611c10565b9050600061218185611c10565b9050600c5486106121be576040517fbb97cc9b00000000000000000000000000000000000000000000000000000000815260040160405180910390fd5b6000868152600a602052604090205460101c61ffff161561220b576040517fba26162b00000000000000000000000000000000000000000000000000000000815260040160405180910390fd5b806080015115612247576040517f4637159500000000000000000000000000000000000000000000000000000000815260040160405180910390fd5b80516001600160a01b0316331461228a576040517f5cd8319200000000000000000000000000000000000000000000000000000000815260040160405180910390fd5b816060015160ff16816060015160ff1614156122d2576040517f011a413500000000000000000000000000000000000000000000000000000000815260040160405180910390fd5b805182516001600160a01b03908116911614156122ee57600080fd5b505050600082815260066020908152604080832080547fff00ffffffffffffffffffffffffffffffffffffffffffffffffffffffffffff167e01000000000000000000000000000000000000000000000000000000000000179055948252600a905292909220805460109290921b91909117905550565b612370848484610d8f565b6001600160a01b0383163b1580159061243957506040517f150b7a0200000000000000000000000000000000000000000000000000000000808252906001600160a01b0385169063150b7a02906123d1903390899088908890600401614829565b6020604051808303816000875af11580156123f0573d6000803e3d6000fd5b505050506040513d601f19601f82011682018060405250810190612414919061485b565b7fffffffff000000000000000000000000000000000000000000000000000000001614155b15612470576040517fd1a57ed600000000000000000000000000000000000000000000000000000000815260040160405180910390fd5b50505050565b6008546001600160a01b031633146124ea576040517f08c379a000000000000000000000000000000000000000000000000000000000815260206004820181905260248201527f4f776e61626c653a2063616c6c6572206973206e6f7420746865206f776e65726044820152606401610cc5565b600e55565b60606124fa82613a6c565b61250357600080fd5b610aac61250f836113fc565b613e85565b6060600082156125f257826001146125ad576040517f7168fcea0000000000000000000000000000000000000000000000000000000081526001600160a01b03851660048201523090637168fcea906024015b602060405180830381865afa158015612584573d6000803e3d6000fd5b505050506040513d601f19601f820116820180604052508101906125a89190614878565b612673565b6040517fa36456600000000000000000000000000000000000000000000000000000000081526001600160a01b0385166004820152309063a364566090602401612567565b6040517f70a082310000000000000000000000000000000000000000000000000000000081526001600160a01b038516600482015230906370a0823190602401602060405180830381865afa15801561264f573d6000803e3d6000fd5b505050506040513d601f19601f820116820180604052508101906126739190614878565b905060008167ffffffffffffffff8111156126905761269061432f565b6040519080825280602002602001820160405280156126b9578160200160208202803683370190505b509050816126ca579150610aac9050565b6040805160e08101825260008082526020820181905291810182905260608082018390526080820183905260a0820183905260c08201527f00000000000000000000000000000000000000000000000000000000000000005b7f000000000000000000000000000000000000000000000000000000000000000061274c610c45565b018110156127f65761275d81611c10565b915081600001516001600160a01b0316886001600160a01b031614156127ee578615801561278d57508160800151155b806127a457508660011480156127a4575081608001515b806127af5750866002145b156127ee57808484806001019550815181106127cd576127cd61461f565b602002602001018181525050828514156127ee578395505050505050610aac565b600101612723565b50919695505050505050565b6000807f00000000000000000000000000000000000000000000000000000000000000005b61282f610c45565b7f0000000000000000000000000000000000000000000000000000000000000000018110156128795761286181611c10565b6080015115612871578160010191505b600101612827565b50919050565b60606000600c5467ffffffffffffffff81111561289e5761289e61432f565b6040519080825280602002602001820160405280156128c7578160200160208202803683370190505b50905060005b600c54811015612879576000818152600a602052604090205482518390839081106128fa576128fa61461f565b60209081029190910101528061290f8161472d565b9150506128cd565b6000828152600a60209081526040822054919082901c908290601082901c9063ffffffff83169061294b61ffff8516611c10565b9050600061295c8461ffff16611c10565b82519091506001600160a01b031633148015612979575060018616155b8061299b575080516001600160a01b03163314801561299b5750856001166001145b612a01576040517f08c379a000000000000000000000000000000000000000000000000000000000815260206004820152600d60248201527f4e4f545f594f55525f5455524e000000000000000000000000000000000000006044820152606401610cc5565b6003600187901c1615612a1357600080fd5b60098810612a7d576040517f08c379a000000000000000000000000000000000000000000000000000000000815260206004820152600c60248201527f496e76616c69645f6d6f766500000000000000000000000000000000000000006044820152606401610cc5565b600386811c60018a901b1c1615612a9357600080fd5b81516001600160a01b031633148015612aad575060018616155b15612ae057600195861795612ac69089901b600361454c565b600189901b600388901c901c600117901b86179550612b28565b7ffffffffffffffffffffffffffffffffffffffffffffffffffffffffffffffffe9590951694612b15600189901b600361454c565b600387811c60018b901b1c17901b909517945b6000612b3387611f8e565b90508060021415612f7f57600182604001818151612b519190614891565b63ffffffff1690525060006080830152612b6c826003613ebf565b60c083015260408301805160019190612b86908390614891565b63ffffffff1690525060608083015160ff169084015260006080840152612bae836001613ebf565b60c0840190815261ffff871660009081526006602090815260409182902086518154838901519489015160608a015160808b015160a08c015115157f0100000000000000000000000000000000000000000000000000000000000000027effffffffffffffffffffffffffffffffffffffffffffffffffffffffffffff9115157e0100000000000000000000000000000000000000000000000000000000000002919091167dffffffffffffffffffffffffffffffffffffffffffffffffffffffffffff60ff9093167d010000000000000000000000000000000000000000000000000000000000027fffff00ffffffffffffffffffffffffffffffffffffffffffffffffffffffffff63ffffffff90951679010000000000000000000000000000000000000000000000000002949094167fffff0000000000ffffffffffffffffffffffffffffffffffffffffffffffffff64ffffffffff909a1674010000000000000000000000000000000000000000027fffffffffffffff000000000000000000000000000000000000000000000000009096166001600160a01b0390971696909617949094179790971693909317179190911617929092178255915180518693612d83926001850192910190614025565b50505061ffff85166000908152600660209081526040918290208451815483870151948701516060880151608089015160a08a015115157f0100000000000000000000000000000000000000000000000000000000000000027effffffffffffffffffffffffffffffffffffffffffffffffffffffffffffff9115157e0100000000000000000000000000000000000000000000000000000000000002919091167dffffffffffffffffffffffffffffffffffffffffffffffffffffffffffff60ff9093167d010000000000000000000000000000000000000000000000000000000000027fffff00ffffffffffffffffffffffffffffffffffffffffffffffffffffffffff63ffffffff90951679010000000000000000000000000000000000000000000000000002949094167fffff0000000000ffffffffffffffffffffffffffffffffffffffffffffffffff64ffffffffff909a1674010000000000000000000000000000000000000000027fffffffffffffff000000000000000000000000000000000000000000000000009096166001600160a01b039097169690961794909417979097169390931717919091161792909217825560c08401518051859392612f58926001850192910190614025565b50505060008a8152600a60209081526040909120805460068a1790921b90911790556133e7565b80600114156133cd57600183604001818151612f9b9190614891565b63ffffffff1690525060006080840152612fb6836003613ebf565b60c084015260408201805160019190612fd0908390614891565b63ffffffff1690525060608084015160ff169083015260006080830152612ff8826001613ebf565b60c08084019190915261ffff871660009081526006602090815260409182902086518154838901519489015160608a015160808b015160a08c015115157f0100000000000000000000000000000000000000000000000000000000000000027effffffffffffffffffffffffffffffffffffffffffffffffffffffffffffff9115157e0100000000000000000000000000000000000000000000000000000000000002919091167dffffffffffffffffffffffffffffffffffffffffffffffffffffffffffff60ff9093167d010000000000000000000000000000000000000000000000000000000000027fffff00ffffffffffffffffffffffffffffffffffffffffffffffffffffffffff63ffffffff90951679010000000000000000000000000000000000000000000000000002949094167fffff0000000000ffffffffffffffffffffffffffffffffffffffffffffffffff64ffffffffff909a1674010000000000000000000000000000000000000000027fffffffffffffff000000000000000000000000000000000000000000000000009096166001600160a01b039097169690961794909417979097169390931717919091161792909217825591850151805186936131d1926001850192910190614025565b50505061ffff85166000908152600660209081526040918290208451815483870151948701516060880151608089015160a08a015115157f0100000000000000000000000000000000000000000000000000000000000000027effffffffffffffffffffffffffffffffffffffffffffffffffffffffffffff9115157e0100000000000000000000000000000000000000000000000000000000000002919091167dffffffffffffffffffffffffffffffffffffffffffffffffffffffffffff60ff9093167d010000000000000000000000000000000000000000000000000000000000027fffff00ffffffffffffffffffffffffffffffffffffffffffffffffffffffffff63ffffffff90951679010000000000000000000000000000000000000000000000000002949094167fffff0000000000ffffffffffffffffffffffffffffffffffffffffffffffffff64ffffffffff909a1674010000000000000000000000000000000000000000027fffffffffffffff000000000000000000000000000000000000000000000000009096166001600160a01b039097169690961794909417979097169390931717919091161792909217825560c084015180518593926133a6926001850192910190614025565b50505060008a8152600a60209081526040909120805460048a1790921b90911790556133e7565b60008a8152600a602090815260409091209088901b851790555b50505050505050505050565b6008546001600160a01b03163314613467576040517f08c379a000000000000000000000000000000000000000000000000000000000815260206004820181905260248201527f4f776e61626c653a2063616c6c6572206973206e6f7420746865206f776e65726044820152606401610cc5565b6001600160a01b0381166134fd576040517f08c379a000000000000000000000000000000000000000000000000000000000815260206004820152602660248201527f4f776e61626c653a206e6577206f776e657220697320746865207a65726f206160448201527f64647265737300000000000000000000000000000000000000000000000000006064820152608401610cc5565b61350681613e1b565b50565b600081613519575060045461351e565b506005545b6005546004546001600160a01b0386166000818152600760209081526040918290208251606081018452905464ffffffffff80821683526501000000000082048116938301939093526a01000000000000000000009004909116918101919091527f0000000000000000000000000000000000000000000000000000000000000000909201909201916135dd576040517f2e07630000000000000000000000000000000000000000000000000000000000815260040160405180910390fd5b84613614576040517fb562e8dd00000000000000000000000000000000000000000000000000000000815260040160405180910390fd5b600184111561364f576040517fa1e9dd9d00000000000000000000000000000000000000000000000000000000815260040160405180910390fd5b7f000000000000000000000000000000000000000000000000000000000000000085840111156136ab576040517fed70473800000000000000000000000000000000000000000000000000000000815260040160405180910390fd5b7f000000000000000000000000000000000000000000000000000000000000000085826020015164ffffffffff16011180156136e75750303b15155b1561371e576040517fd7fac8c700000000000000000000000000000000000000000000000000000000815260040160405180910390fd5b6001600160a01b03861633141561374157602081018051860164ffffffffff1690525b6040805160e0810182526001600160a01b038816815260006020820181905291810182905260ff8616606082810191909152608082018390526001881460a083015260c082018190528351880164ffffffffff168452915b878110156137e357604051858201906001600160a01b038b16906000907fddf252ad1be2c89b69c2b068fc378daa952ba7f163c4a11628f55a4df523b3ef908290a4600101613799565b506001600160a01b03808916600090815260076020908152604080832087518154848a0151848b015164ffffffffff9081166a0100000000000000000000027fffffffffffffffffffffffffffffffffff0000000000ffffffffffffffffffff92821665010000000000027fffffffffffffffffffffffffffffffffffffffffffff00000000000000000000909416948216949094179290921716919091179091558884526006835292819020855181548785015193880151606089015160808a015160a08b015115157f0100000000000000000000000000000000000000000000000000000000000000027effffffffffffffffffffffffffffffffffffffffffffffffffffffffffffff9115157e0100000000000000000000000000000000000000000000000000000000000002919091167dffffffffffffffffffffffffffffffffffffffffffffffffffffffffffff60ff9093167d010000000000000000000000000000000000000000000000000000000000027fffff00ffffffffffffffffffffffffffffffffffffffffffffffffffffffffff63ffffffff90951679010000000000000000000000000000000000000000000000000002949094167fffff0000000000ffffffffffffffffffffffffffffffffffffffffffffffffff98909a1674010000000000000000000000000000000000000000027fffffffffffffff0000000000000000000000000000000000000000000000000090951695909a169490941792909217949094169590951792909217939093169390931792909217815560c083015180518493613a44926001850192910190614025565b50505085613a59576004805488019055613a62565b60058054880190555b5050505050505050565b6000817f000000000000000000000000000000000000000000000000000000000000000011158015610aac5750613aa1610c45565b613acb907f000000000000000000000000000000000000000000000000000000000000000061454c565b821092915050565b606081613b1357505060408051808201909152600181527f3000000000000000000000000000000000000000000000000000000000000000602082015290565b8160005b8115613b3d5780613b278161472d565b9150613b369050600a836145f7565b9150613b17565b60008167ffffffffffffffff811115613b5857613b5861432f565b6040519080825280601f01601f191660200182016040528015613b82576020820181803683370190505b509050815b8515613c2757613b98600182614812565b90506000613ba7600a886145f7565b613bb290600a61464e565b613bbc9088614812565b613bc79060306148b0565b905060008160f81b905080848481518110613be457613be461461f565b60200101907effffffffffffffffffffffffffffffffffffffffffffffffffffffffffffff1916908160001a905350613c1e600a896145f7565b97505050613b87565b50949350505050565b60608282604051602001613c459291906148d5565b604051602081830303815290604052905092915050565b606081604051602001613c6f919061497d565b6040516020818303038152906040529050919050565b6060611ab26040518060400160405280600481526020017f74657874000000000000000000000000000000000000000000000000000000008152508484613ff4565b6060815160001415613ce757505060408051602081019091526000815290565b6000604051806060016040528060408152602001614bef6040913990506000600384516002613d16919061454c565b613d2091906145f7565b613d2b90600461464e565b67ffffffffffffffff811115613d4357613d4361432f565b6040519080825280601f01601f191660200182016040528015613d6d576020820181803683370190505b509050600182016020820185865187015b80821015613dd9576003820191508151603f8160121c168501518453600184019350603f81600c1c168501518453600184019350603f8160061c168501518453600184019350603f8116850151845350600183019250613d7e565b5050600386510660018114613df55760028114613e0857613e10565b603d6001830353603d6002830353613e10565b603d60018303535b509195945050505050565b600880546001600160a01b038381167fffffffffffffffffffffffff0000000000000000000000000000000000000000831681179093556040519116919082907f8be0079c531659141344cd1fd0a4f28419497f9722a3daafe3b4186f6b6457e090600090a35050565b6060613eaf82604051602001613e9b91906149e9565b604051602081830303815290604052613cc7565b604051602001613c6f9190614aa1565b604082015160609063ffffffff166000613eda6080836145f7565b905060006080613eeb600185614812565b613ef5919061460b565b90506000613f0483600161454c565b67ffffffffffffffff811115613f1c57613f1c61432f565b604051908082528060200260200182016040528015613f45578160200160208202803683370190505b50905060005b8760c0015151811015613fa5578760c001518181518110613f6e57613f6e61461f565b6020026020010151828281518110613f8857613f8861461f565b602090810291909101015280613f9d8161472d565b915050613f4b565b50613fb183600161454c565b8760c00151511015613fea578051600183901b87901b908190839086908110613fdc57613fdc61461f565b602002602001018181525050505b9695505050505050565b60608383838660405160200161400d9493929190614ae6565b60405160208183030381529060405290509392505050565b828054828255906000526020600020908101928215614060579160200282015b82811115614060578251825591602001919060010190614045565b5061406c929150614070565b5090565b5b8082111561406c5760008155600101614071565b7fffffffff000000000000000000000000000000000000000000000000000000008116811461350657600080fd5b6000602082840312156140c557600080fd5b8135611ab281614085565b60005b838110156140eb5781810151838201526020016140d3565b838111156124705750506000910152565b600081518084526141148160208601602086016140d0565b601f017fffffffffffffffffffffffffffffffffffffffffffffffffffffffffffffffe0169290920160200192915050565b602081526000611ab260208301846140fc565b60006020828403121561416b57600080fd5b5035919050565b80356001600160a01b038116811461418957600080fd5b919050565b600080604083850312156141a157600080fd5b6141aa83614172565b946020939093013593505050565b600080604083850312156141cb57600080fd5b50508035926020909101359150565b6000602082840312156141ec57600080fd5b611ab282614172565b60008060006060848603121561420a57600080fd5b61421384614172565b925061422160208501614172565b9150604084013590509250925092565b600081518084526020808501945080840160005b8381101561426157815187529582019590820190600101614245565b509495945050505050565b602081526001600160a01b03825116602082015264ffffffffff602083015116604082015263ffffffff604083015116606082015260ff6060830151166080820152600060808301516142c360a084018215159052565b5060a083015180151560c08401525060c083015160e0808401526142eb610100840182614231565b949350505050565b6000806040838503121561430657600080fd5b61430f83614172565b91506020830135801515811461432457600080fd5b809150509250929050565b7f4e487b7100000000000000000000000000000000000000000000000000000000600052604160045260246000fd5b6000806000806080858703121561437457600080fd5b61437d85614172565b935061438b60208601614172565b925060408501359150606085013567ffffffffffffffff808211156143af57600080fd5b818701915087601f8301126143c357600080fd5b8135818111156143d5576143d561432f565b604051601f82017fffffffffffffffffffffffffffffffffffffffffffffffffffffffffffffffe0908116603f0116810190838211818310171561441b5761441b61432f565b816040528281528a602084870101111561443457600080fd5b82602086016020830137600060208483010152809550505050505092959194509250565b6020808252825182820181905260009190848201906040850190845b8181101561449057835183529284019291840191600101614474565b50909695505050505050565b600080604083850312156144af57600080fd5b6144b883614172565b91506144c660208401614172565b90509250929050565b600181811c908216806144e357607f821691505b60208210811415612879577f4e487b7100000000000000000000000000000000000000000000000000000000600052602260045260246000fd5b7f4e487b7100000000000000000000000000000000000000000000000000000000600052601160045260246000fd5b6000821982111561455f5761455f61451d565b500190565b600064ffffffffff82168061457b5761457b61451d565b7fffffffffffffffffffffffffffffffffffffffffffffffffffffffffffffffff0192915050565b600064ffffffffff808316818114156145be576145be61451d565b6001019392505050565b7f4e487b7100000000000000000000000000000000000000000000000000000000600052601260045260246000fd5b600082614606576146066145c8565b500490565b60008261461a5761461a6145c8565b500690565b7f4e487b7100000000000000000000000000000000000000000000000000000000600052603260045260246000fd5b6000817fffffffffffffffffffffffffffffffffffffffffffffffffffffffffffffffff04831182151516156146865761468661451d565b500290565b6000855161469d818460208a016140d0565b8551908301906146b1818360208a016140d0565b85519101906146c48183602089016140d0565b84519101906146d78183602088016140d0565b019695505050505050565b600082516146f48184602087016140d0565b9190910192915050565b600083516147108184602088016140d0565b8351908301906147248183602088016140d0565b01949350505050565b60007fffffffffffffffffffffffffffffffffffffffffffffffffffffffffffffffff82141561475f5761475f61451d565b5060010190565b600083516147788184602088016140d0565b83519083019061478c8183602088016140d0565b7f3c2f7376673e00000000000000000000000000000000000000000000000000009101908152600601949350505050565b6000816147cc576147cc61451d565b507fffffffffffffffffffffffffffffffffffffffffffffffffffffffffffffffff0190565b600064ffffffffff8083168185168083038211156147245761472461451d565b6000828210156148245761482461451d565b500390565b60006001600160a01b03808716835280861660208401525083604083015260806060830152613fea60808301846140fc565b60006020828403121561486d57600080fd5b8151611ab281614085565b60006020828403121561488a57600080fd5b5051919050565b600063ffffffff8083168185168083038211156147245761472461451d565b600060ff821660ff84168060ff038211156148cd576148cd61451d565b019392505050565b600083516148e78184602088016140d0565b7f3d000000000000000000000000000000000000000000000000000000000000009083019081527f2200000000000000000000000000000000000000000000000000000000000000600182015283516149478160028401602088016140d0565b7f222000000000000000000000000000000000000000000000000000000000000060029290910191820152600401949350505050565b7f3c215b43444154415b00000000000000000000000000000000000000000000008152600082516149b58160098501602087016140d0565b7f5d5d3e00000000000000000000000000000000000000000000000000000000006009939091019283015250600c01919050565b7f7b226e616d65223a2022584f584f222c20226465736372697074696f6e223a2081527f224f6e20636861696e205469632d5461632d546f65207761722067616d652e2260208201527f2c2022696d616765223a22000000000000000000000000000000000000000000604082015260008251614a6d81604b8501602087016140d0565b7f227d000000000000000000000000000000000000000000000000000000000000604b939091019283015250604d01919050565b7f646174613a6170706c69636174696f6e2f6a736f6e3b6261736536342c000000815260008251614ad981601d8501602087016140d0565b91909101601d0192915050565b7f3c00000000000000000000000000000000000000000000000000000000000000815260008551614b1e816001850160208a016140d0565b7f20000000000000000000000000000000000000000000000000000000000000006001918401918201528551614b5b816002840160208a016140d0565b8082019150507f3e000000000000000000000000000000000000000000000000000000000000008060028301528551614b9b816003850160208a016140d0565b7f3c2f000000000000000000000000000000000000000000000000000000000000600393909101928301528451614bd98160058501602089016140d0565b6005920191820152600601969550505050505056fe4142434445464748494a4b4c4d4e4f505152535455565758595a6162636465666768696a6b6c6d6e6f707172737475767778797a303132333435363738392b2f3c73766720786d6c6e733d22687474703a2f2f7777772e77332e6f72672f323030302f737667222077696474683d223130303022206865696768743d223130303022207374796c653d226261636b67726f756e643a233930363146393b626f726465722d7374796c653a736f6c69643b626f726465722d636f6c6f723a77686974653b223ea2646970667358221220fe2d65a2d6e500e443bd506dfbf69b1079fb96c80182afcfec8253255c9f7c8e64736f6c634300080c0033",
  "linkReferences": {},
  "deployedLinkReferences": {}
}