{
  "_format": "hh-sol-artifact-1",
  "contractName": "XOXO",
  "sourceName": "contracts/XOXO.sol",
  "abi": [
    {
      "inputs": [],
      "stateMutability": "nonpayable",
      "type": "constructor"
    },
    {
      "inputs": [],
      "name": "CallerNotOwner",
      "type": "error"
    },
    {
      "inputs": [],
      "name": "CallerNotOwnerNorApproved",
      "type": "error"
    },
    {
      "inputs": [],
      "name": "GameAlreadyStarted",
      "type": "error"
    },
    {
      "inputs": [],
      "name": "InvalidGameId",
      "type": "error"
    },
    {
      "inputs": [],
      "name": "InvalidTokenType",
      "type": "error"
    },
    {
      "inputs": [],
      "name": "MaxSupplyReached",
      "type": "error"
    },
    {
      "inputs": [],
      "name": "MintMaxSupplyReached",
      "type": "error"
    },
    {
      "inputs": [],
      "name": "MintMaxWalletReached",
      "type": "error"
    },
    {
      "inputs": [],
      "name": "MintToZeroAddress",
      "type": "error"
    },
    {
      "inputs": [],
      "name": "MintZeroQuantity",
      "type": "error"
    },
    {
      "inputs": [],
      "name": "NonexistentToken",
      "type": "error"
    },
    {
      "inputs": [],
      "name": "QueryForZeroAddress",
      "type": "error"
    },
    {
      "inputs": [],
      "name": "TokenInGame",
      "type": "error"
    },
    {
      "inputs": [],
      "name": "TransferFromIncorrectOwner",
      "type": "error"
    },
    {
      "inputs": [],
      "name": "TransferToNonERC721ReceiverImplementer",
      "type": "error"
    },
    {
      "inputs": [],
      "name": "TransferToZeroAddress",
      "type": "error"
    },
    {
      "inputs": [],
      "name": "WrongTokenType",
      "type": "error"
    },
    {
      "anonymous": false,
      "inputs": [
        {
          "indexed": true,
          "internalType": "address",
          "name": "owner",
          "type": "address"
        },
        {
          "indexed": true,
          "internalType": "address",
          "name": "spender",
          "type": "address"
        },
        {
          "indexed": true,
          "internalType": "uint256",
          "name": "id",
          "type": "uint256"
        }
      ],
      "name": "Approval",
      "type": "event"
    },
    {
      "anonymous": false,
      "inputs": [
        {
          "indexed": true,
          "internalType": "address",
          "name": "owner",
          "type": "address"
        },
        {
          "indexed": true,
          "internalType": "address",
          "name": "operator",
          "type": "address"
        },
        {
          "indexed": false,
          "internalType": "bool",
          "name": "approved",
          "type": "bool"
        }
      ],
      "name": "ApprovalForAll",
      "type": "event"
    },
    {
      "anonymous": false,
      "inputs": [
        {
          "indexed": true,
          "internalType": "address",
          "name": "previousOwner",
          "type": "address"
        },
        {
          "indexed": true,
          "internalType": "address",
          "name": "newOwner",
          "type": "address"
        }
      ],
      "name": "OwnershipTransferred",
      "type": "event"
    },
    {
      "anonymous": false,
      "inputs": [
        {
          "indexed": true,
          "internalType": "address",
          "name": "from",
          "type": "address"
        },
        {
          "indexed": true,
          "internalType": "address",
          "name": "to",
          "type": "address"
        },
        {
          "indexed": true,
          "internalType": "uint256",
          "name": "id",
          "type": "uint256"
        }
      ],
      "name": "Transfer",
      "type": "event"
    },
    {
      "inputs": [
        {
          "internalType": "uint256",
          "name": "tokenId",
          "type": "uint256"
        }
      ],
      "name": "_tokenDataOf",
      "outputs": [
        {
          "components": [
            {
              "internalType": "address",
              "name": "owner",
              "type": "address"
            },
            {
              "internalType": "uint40",
              "name": "playStart",
              "type": "uint40"
            },
            {
              "internalType": "uint16",
              "name": "wins",
              "type": "uint16"
            },
            {
              "internalType": "uint16",
              "name": "loses",
              "type": "uint16"
            },
            {
              "internalType": "uint8",
              "name": "XorO",
              "type": "uint8"
            },
            {
              "internalType": "bool",
              "name": "inPlay",
              "type": "bool"
            },
            {
              "internalType": "bool",
              "name": "nextTokenDataSet",
              "type": "bool"
            }
          ],
          "internalType": "struct ERC721G.TokenData",
          "name": "tokenData",
          "type": "tuple"
        }
      ],
      "stateMutability": "view",
      "type": "function"
    },
    {
      "inputs": [
        {
          "internalType": "address",
          "name": "spender",
          "type": "address"
        },
        {
          "internalType": "uint256",
          "name": "tokenId",
          "type": "uint256"
        }
      ],
      "name": "approve",
      "outputs": [],
      "stateMutability": "nonpayable",
      "type": "function"
    },
    {
      "inputs": [
        {
          "internalType": "address",
          "name": "owner",
          "type": "address"
        }
      ],
      "name": "balanceOf",
      "outputs": [
        {
          "internalType": "uint256",
          "name": "",
          "type": "uint256"
        }
      ],
      "stateMutability": "view",
      "type": "function"
    },
    {
      "inputs": [
        {
          "internalType": "uint256",
          "name": "_tokenId",
          "type": "uint256"
        }
      ],
      "name": "createNewGame",
      "outputs": [],
      "stateMutability": "nonpayable",
      "type": "function"
    },
    {
      "inputs": [
        {
          "internalType": "uint256",
          "name": "_gameId",
          "type": "uint256"
        },
        {
          "internalType": "uint256",
          "name": "_tokenId",
          "type": "uint256"
        }
      ],
      "name": "endGame",
      "outputs": [],
      "stateMutability": "nonpayable",
      "type": "function"
    },
    {
      "inputs": [],
      "name": "getAllGames",
      "outputs": [
        {
          "internalType": "uint256[]",
          "name": "",
          "type": "uint256[]"
        }
      ],
      "stateMutability": "view",
      "type": "function"
    },
    {
      "inputs": [
        {
          "internalType": "uint256",
          "name": "",
          "type": "uint256"
        }
      ],
      "name": "getApproved",
      "outputs": [
        {
          "internalType": "address",
          "name": "",
          "type": "address"
        }
      ],
      "stateMutability": "view",
      "type": "function"
    },
    {
      "inputs": [
        {
          "internalType": "uint256",
          "name": "_gameId",
          "type": "uint256"
        }
      ],
      "name": "getBoard",
      "outputs": [
        {
          "internalType": "uint256",
          "name": "",
          "type": "uint256"
        }
      ],
      "stateMutability": "view",
      "type": "function"
    },
    {
      "inputs": [
        {
          "internalType": "uint256",
          "name": "_gameId",
          "type": "uint256"
        }
      ],
      "name": "getGame",
      "outputs": [
        {
          "internalType": "uint256",
          "name": "",
          "type": "uint256"
        }
      ],
      "stateMutability": "view",
      "type": "function"
    },
    {
      "inputs": [
        {
          "internalType": "uint256",
          "name": "_gameId",
          "type": "uint256"
        }
      ],
      "name": "getPlayerTurn",
      "outputs": [
        {
          "internalType": "uint256",
          "name": "",
          "type": "uint256"
        }
      ],
      "stateMutability": "view",
      "type": "function"
    },
    {
      "inputs": [
        {
          "internalType": "uint256",
          "name": "_gameId",
          "type": "uint256"
        }
      ],
      "name": "getTimestamp",
      "outputs": [
        {
          "internalType": "uint256",
          "name": "",
          "type": "uint256"
        }
      ],
      "stateMutability": "view",
      "type": "function"
    },
    {
      "inputs": [
        {
          "internalType": "uint256",
          "name": "_gameId",
          "type": "uint256"
        }
      ],
      "name": "getTokensInPlay",
      "outputs": [
        {
          "internalType": "uint16",
          "name": "",
          "type": "uint16"
        },
        {
          "internalType": "uint16",
          "name": "",
          "type": "uint16"
        }
      ],
      "stateMutability": "view",
      "type": "function"
    },
    {
      "inputs": [
        {
          "internalType": "uint256",
          "name": "_gameId",
          "type": "uint256"
        }
      ],
      "name": "getWin",
      "outputs": [
        {
          "internalType": "uint256",
          "name": "",
          "type": "uint256"
        }
      ],
      "stateMutability": "view",
      "type": "function"
    },
    {
      "inputs": [
        {
          "internalType": "address",
          "name": "",
          "type": "address"
        },
        {
          "internalType": "address",
          "name": "",
          "type": "address"
        }
      ],
      "name": "isApprovedForAll",
      "outputs": [
        {
          "internalType": "bool",
          "name": "",
          "type": "bool"
        }
      ],
      "stateMutability": "view",
      "type": "function"
    },
    {
      "inputs": [
        {
          "internalType": "uint256",
          "name": "_gameId",
          "type": "uint256"
        },
        {
          "internalType": "uint256",
          "name": "_tokenId",
          "type": "uint256"
        }
      ],
      "name": "joinGame",
      "outputs": [],
      "stateMutability": "nonpayable",
      "type": "function"
    },
    {
      "inputs": [],
      "name": "lockupPeriod",
      "outputs": [
        {
          "internalType": "uint256",
          "name": "",
          "type": "uint256"
        }
      ],
      "stateMutability": "view",
      "type": "function"
    },
    {
      "inputs": [
        {
          "internalType": "uint256",
          "name": "_quantity",
          "type": "uint256"
        },
        {
          "internalType": "uint256",
          "name": "_type",
          "type": "uint256"
        }
      ],
      "name": "mint",
      "outputs": [],
      "stateMutability": "payable",
      "type": "function"
    },
    {
      "inputs": [
        {
          "internalType": "address",
          "name": "",
          "type": "address"
        }
      ],
      "name": "minted",
      "outputs": [
        {
          "internalType": "uint256",
          "name": "",
          "type": "uint256"
        }
      ],
      "stateMutability": "view",
      "type": "function"
    },
    {
      "inputs": [],
      "name": "name",
      "outputs": [
        {
          "internalType": "string",
          "name": "",
          "type": "string"
        }
      ],
      "stateMutability": "view",
      "type": "function"
    },
    {
      "inputs": [
        {
          "internalType": "address",
          "name": "user",
          "type": "address"
        }
      ],
      "name": "numInPlay",
      "outputs": [
        {
          "internalType": "uint256",
          "name": "",
          "type": "uint256"
        }
      ],
      "stateMutability": "view",
      "type": "function"
    },
    {
      "inputs": [
        {
          "internalType": "address",
          "name": "user",
          "type": "address"
        }
      ],
      "name": "numMinted",
      "outputs": [
        {
          "internalType": "uint256",
          "name": "",
          "type": "uint256"
        }
      ],
      "stateMutability": "view",
      "type": "function"
    },
    {
      "inputs": [
        {
          "internalType": "address",
          "name": "user",
          "type": "address"
        }
      ],
      "name": "numOwned",
      "outputs": [
        {
          "internalType": "uint256",
          "name": "",
          "type": "uint256"
        }
      ],
      "stateMutability": "view",
      "type": "function"
    },
    {
      "inputs": [],
      "name": "owner",
      "outputs": [
        {
          "internalType": "address",
          "name": "",
          "type": "address"
        }
      ],
      "stateMutability": "view",
      "type": "function"
    },
    {
      "inputs": [
        {
          "internalType": "uint256",
          "name": "tokenId",
          "type": "uint256"
        }
      ],
      "name": "ownerOf",
      "outputs": [
        {
          "internalType": "address",
          "name": "",
          "type": "address"
        }
      ],
      "stateMutability": "view",
      "type": "function"
    },
    {
      "inputs": [
        {
          "internalType": "uint256",
          "name": "_gameId",
          "type": "uint256"
        },
        {
          "internalType": "uint256",
          "name": "_index",
          "type": "uint256"
        }
      ],
      "name": "playMove",
      "outputs": [],
      "stateMutability": "nonpayable",
      "type": "function"
    },
    {
      "inputs": [],
      "name": "renounceOwnership",
      "outputs": [],
      "stateMutability": "nonpayable",
      "type": "function"
    },
    {
      "inputs": [
        {
          "internalType": "address",
          "name": "from",
          "type": "address"
        },
        {
          "internalType": "address",
          "name": "to",
          "type": "address"
        },
        {
          "internalType": "uint256",
          "name": "tokenId",
          "type": "uint256"
        }
      ],
      "name": "safeTransferFrom",
      "outputs": [],
      "stateMutability": "nonpayable",
      "type": "function"
    },
    {
      "inputs": [
        {
          "internalType": "address",
          "name": "from",
          "type": "address"
        },
        {
          "internalType": "address",
          "name": "to",
          "type": "address"
        },
        {
          "internalType": "uint256",
          "name": "tokenId",
          "type": "uint256"
        },
        {
          "internalType": "bytes",
          "name": "data",
          "type": "bytes"
        }
      ],
      "name": "safeTransferFrom",
      "outputs": [],
      "stateMutability": "nonpayable",
      "type": "function"
    },
    {
      "inputs": [
        {
          "internalType": "address",
          "name": "operator",
          "type": "address"
        },
        {
          "internalType": "bool",
          "name": "approved",
          "type": "bool"
        }
      ],
      "name": "setApprovalForAll",
      "outputs": [],
      "stateMutability": "nonpayable",
      "type": "function"
    },
    {
      "inputs": [
        {
          "internalType": "uint256",
          "name": "_timeDelta",
          "type": "uint256"
        }
      ],
      "name": "setLockupPeriod",
      "outputs": [],
      "stateMutability": "nonpayable",
      "type": "function"
    },
    {
      "inputs": [],
      "name": "supplyO",
      "outputs": [
        {
          "internalType": "uint256",
          "name": "",
          "type": "uint256"
        }
      ],
      "stateMutability": "view",
      "type": "function"
    },
    {
      "inputs": [],
      "name": "supplyX",
      "outputs": [
        {
          "internalType": "uint256",
          "name": "",
          "type": "uint256"
        }
      ],
      "stateMutability": "view",
      "type": "function"
    },
    {
      "inputs": [
        {
          "internalType": "bytes4",
          "name": "interfaceId",
          "type": "bytes4"
        }
      ],
      "name": "supportsInterface",
      "outputs": [
        {
          "internalType": "bool",
          "name": "",
          "type": "bool"
        }
      ],
      "stateMutability": "view",
      "type": "function"
    },
    {
      "inputs": [],
      "name": "symbol",
      "outputs": [
        {
          "internalType": "string",
          "name": "",
          "type": "string"
        }
      ],
      "stateMutability": "view",
      "type": "function"
    },
    {
      "inputs": [
        {
          "internalType": "address",
          "name": "user",
          "type": "address"
        },
        {
          "internalType": "uint256",
          "name": "type_",
          "type": "uint256"
        }
      ],
      "name": "tokenIdsOf",
      "outputs": [
        {
          "internalType": "uint256[]",
          "name": "",
          "type": "uint256[]"
        }
      ],
      "stateMutability": "view",
      "type": "function"
    },
    {
      "inputs": [
        {
          "internalType": "uint256",
          "name": "_tokenId",
          "type": "uint256"
        }
      ],
      "name": "tokenURI",
      "outputs": [
        {
          "internalType": "string",
          "name": "",
          "type": "string"
        }
      ],
      "stateMutability": "view",
      "type": "function"
    },
    {
      "inputs": [
        {
          "internalType": "uint256",
          "name": "",
          "type": "uint256"
        }
      ],
      "name": "tokensAndGames",
      "outputs": [
        {
          "internalType": "uint256",
          "name": "",
          "type": "uint256"
        }
      ],
      "stateMutability": "view",
      "type": "function"
    },
    {
      "inputs": [],
      "name": "totalNumInPlay",
      "outputs": [
        {
          "internalType": "uint256",
          "name": "",
          "type": "uint256"
        }
      ],
      "stateMutability": "view",
      "type": "function"
    },
    {
      "inputs": [],
      "name": "totalSupply",
      "outputs": [
        {
          "internalType": "uint256",
          "name": "",
          "type": "uint256"
        }
      ],
      "stateMutability": "view",
      "type": "function"
    },
    {
      "inputs": [],
      "name": "totalSupplyXandO",
      "outputs": [
        {
          "internalType": "uint256",
          "name": "",
          "type": "uint256"
        },
        {
          "internalType": "uint256",
          "name": "",
          "type": "uint256"
        }
      ],
      "stateMutability": "view",
      "type": "function"
    },
    {
      "inputs": [
        {
          "internalType": "address",
          "name": "from",
          "type": "address"
        },
        {
          "internalType": "address",
          "name": "to",
          "type": "address"
        },
        {
          "internalType": "uint256",
          "name": "tokenId",
          "type": "uint256"
        }
      ],
      "name": "transferFrom",
      "outputs": [],
      "stateMutability": "nonpayable",
      "type": "function"
    },
    {
      "inputs": [
        {
          "internalType": "address",
          "name": "newOwner",
          "type": "address"
        }
      ],
      "name": "transferOwnership",
      "outputs": [],
      "stateMutability": "nonpayable",
      "type": "function"
    },
    {
      "inputs": [
        {
          "internalType": "uint256",
          "name": "tokenId",
          "type": "uint256"
        }
      ],
      "name": "trueOwnerOf",
      "outputs": [
        {
          "internalType": "address",
          "name": "",
          "type": "address"
        }
      ],
      "stateMutability": "view",
      "type": "function"
    },
    {
      "inputs": [],
      "name": "typeMaxSupply",
      "outputs": [
        {
          "internalType": "uint256",
          "name": "",
          "type": "uint256"
        }
      ],
      "stateMutability": "view",
      "type": "function"
    }
  ],
  "bytecode": "0x60e06040526105dc600d55620d2f00600e553480156200001e57600080fd5b506040518060400160405280600481526020017f584f584f000000000000000000000000000000000000000000000000000000008152506040518060400160405280600481526020017f584f584f000000000000000000000000000000000000000000000000000000008152506001610bb860038460009080519060200190620000aa929190620001dd565b508360019080519060200190620000c3929190620001dd565b508160a081815250508060c081815250508260808181525050505050505062000101620000f56200010f60201b60201c565b6200011760201b60201c565b6001600981905550620002f2565b600033905090565b6000600860009054906101000a900473ffffffffffffffffffffffffffffffffffffffff16905081600860006101000a81548173ffffffffffffffffffffffffffffffffffffffff021916908373ffffffffffffffffffffffffffffffffffffffff1602179055508173ffffffffffffffffffffffffffffffffffffffff168173ffffffffffffffffffffffffffffffffffffffff167f8be0079c531659141344cd1fd0a4f28419497f9722a3daafe3b4186f6b6457e060405160405180910390a35050565b828054620001eb906200028d565b90600052602060002090601f0160209004810192826200020f57600085556200025b565b82601f106200022a57805160ff19168380011785556200025b565b828001600101855582156200025b579182015b828111156200025a5782518255916020019190600101906200023d565b5b5090506200026a91906200026e565b5090565b5b80821115620002895760008160009055506001016200026f565b5090565b60006002820490506001821680620002a657607f821691505b60208210811415620002bd57620002bc620002c3565b5b50919050565b7f4e487b7100000000000000000000000000000000000000000000000000000000600052602260045260246000fd5b60805160a05160c051614b6f6200034c60003960006136c5015260006136690152600081816128220152818161284601528181612976015281816129a20152818161349e01528181613acb0152613afd0152614b6f6000f3fe6080604052600436106102675760003560e01c80638da5cb5b11610144578063bc1b41d4116100b6578063da9a90891161007a578063da9a9089146109df578063db1c45f914610a1c578063e8fcf9ed14610a47578063e985e9c514610a70578063ee947a7c14610aad578063f2fde38b14610ad857610267565b8063bc1b41d4146108e6578063c771c39014610911578063c87b56dd1461093a578063c9be651b14610977578063d607a1a6146109b457610267565b8063a2f77bcc11610108578063a2f77bcc1461079f578063a3645660146107dc578063ad3afd6014610819578063b60b9fcb14610857578063b633620c14610880578063b88d4fde146108bd57610267565b80638da5cb5b146106cc57806395d89b41146106f75780639f98985d14610722578063a22cb4651461074b578063a2a13def1461077457610267565b806345e09e54116101dd57806370a08231116101a157806370a0823114610595578063715018a6146105d25780637168fcea146105e95780637365f48d1461062657806381d604831461065257806388486f861461068f57610267565b806345e09e541461048a57806347ffd897146104c75780635d4dd32b146104f05780636352211e1461051b5780636c08c6b11461055857610267565b80631b2ef1ca1161022f5780631b2ef1ca146103655780631e7269c51461038157806320fc7eb2146103be57806323b872dd146103fb578063412c0c2d1461042457806342842e0e1461046157610267565b806301ffc9a71461026c57806306fdde03146102a9578063081812fc146102d4578063095ea7b31461031157806318160ddd1461033a575b600080fd5b34801561027857600080fd5b50610293600480360381019061028e9190613f8f565b610b01565b6040516102a091906143b3565b60405180910390f35b3480156102b557600080fd5b506102be610b93565b6040516102cb91906143ce565b60405180910390f35b3480156102e057600080fd5b506102fb60048036038101906102f69190613fe1565b610c21565b604051610308919061432a565b60405180910390f35b34801561031d57600080fd5b5061033860048036038101906103339190613f53565b610c54565b005b34801561034657600080fd5b5061034f610e23565b60405161035c91906144d4565b60405180910390f35b61037f600480360381019061037a9190614033565b610e3a565b005b34801561038d57600080fd5b506103a860048036038101906103a39190613de8565b610f49565b6040516103b591906144d4565b60405180910390f35b3480156103ca57600080fd5b506103e560048036038101906103e09190613de8565b610f61565b6040516103f291906144d4565b60405180910390f35b34801561040757600080fd5b50610422600480360381019061041d9190613e4d565b610fc5565b005b34801561043057600080fd5b5061044b60048036038101906104469190613fe1565b61171b565b60405161045891906144d4565b60405180910390f35b34801561046d57600080fd5b5061048860048036038101906104839190613e4d565b611749565b005b34801561049657600080fd5b506104b160048036038101906104ac9190613fe1565b611769565b6040516104be91906144d4565b60405180910390f35b3480156104d357600080fd5b506104ee60048036038101906104e99190613fe1565b611794565b005b3480156104fc57600080fd5b506105056118b9565b60405161051291906144d4565b60405180910390f35b34801561052757600080fd5b50610542600480360381019061053d9190613fe1565b6118bf565b60405161054f919061432a565b60405180910390f35b34801561056457600080fd5b5061057f600480360381019061057a9190613fe1565b6118ea565b60405161058c9190614490565b60405180910390f35b3480156105a157600080fd5b506105bc60048036038101906105b79190613de8565b611ade565b6040516105c991906144d4565b60405180910390f35b3480156105de57600080fd5b506105e7611ba8565b005b3480156105f557600080fd5b50610610600480360381019061060b9190613de8565b611c30565b60405161061d91906144d4565b60405180910390f35b34801561063257600080fd5b5061063b611d1d565b6040516106499291906144ef565b60405180910390f35b34801561065e57600080fd5b5061067960048036038101906106749190613fe1565b611d2e565b60405161068691906144d4565b60405180910390f35b34801561069b57600080fd5b506106b660048036038101906106b19190613fe1565b611d46565b6040516106c3919061432a565b60405180910390f35b3480156106d857600080fd5b506106e1611d5c565b6040516106ee919061432a565b60405180910390f35b34801561070357600080fd5b5061070c611d86565b60405161071991906143ce565b60405180910390f35b34801561072e57600080fd5b5061074960048036038101906107449190614033565b611e14565b005b34801561075757600080fd5b50610772600480360381019061076d9190613f17565b611f1b565b005b34801561078057600080fd5b50610789612018565b60405161079691906144d4565b60405180910390f35b3480156107ab57600080fd5b506107c660048036038101906107c19190613fe1565b61201e565b6040516107d391906144d4565b60405180910390f35b3480156107e857600080fd5b5061080360048036038101906107fe9190613de8565b61203b565b60405161081091906144d4565b60405180910390f35b34801561082557600080fd5b50610840600480360381019061083b9190613fe1565b61209f565b60405161084e9291906144ab565b60405180910390f35b34801561086357600080fd5b5061087e60048036038101906108799190614033565b6120d6565b005b34801561088c57600080fd5b506108a760048036038101906108a29190613fe1565b61232b565b6040516108b491906144d4565b60405180910390f35b3480156108c957600080fd5b506108e460048036038101906108df9190613e9c565b612353565b005b3480156108f257600080fd5b506108fb612498565b60405161090891906144d4565b60405180910390f35b34801561091d57600080fd5b5061093860048036038101906109339190613fe1565b61249e565b005b34801561094657600080fd5b50610961600480360381019061095c9190613fe1565b612524565b60405161096e91906143ce565b60405180910390f35b34801561098357600080fd5b5061099e60048036038101906109999190613f53565b6125d2565b6040516109ab9190614391565b60405180910390f35b3480156109c057600080fd5b506109c961296f565b6040516109d691906144d4565b60405180910390f35b3480156109eb57600080fd5b50610a066004803603810190610a019190613fe1565b6129f5565b604051610a1391906144d4565b60405180910390f35b348015610a2857600080fd5b50610a31612a24565b604051610a3e9190614391565b60405180910390f35b348015610a5357600080fd5b50610a6e6004803603810190610a699190614033565b612aa8565b005b348015610a7c57600080fd5b50610a976004803603810190610a929190613e11565b61334d565b604051610aa491906143b3565b60405180910390f35b348015610ab957600080fd5b50610ac261337c565b604051610acf91906144d4565b60405180910390f35b348015610ae457600080fd5b50610aff6004803603810190610afa9190613de8565b613382565b005b60006301ffc9a760e01b827bffffffffffffffffffffffffffffffffffffffffffffffffffffffff19161480610b5c57506380ac58cd60e01b827bffffffffffffffffffffffffffffffffffffffffffffffffffffffff1916145b80610b8c5750635b5e139f60e01b827bffffffffffffffffffffffffffffffffffffffffffffffffffffffff1916145b9050919050565b60008054610ba090614843565b80601f0160208091040260200160405190810160405280929190818152602001828054610bcc90614843565b8015610c195780601f10610bee57610100808354040283529160200191610c19565b820191906000526020600020905b815481529060010190602001808311610bfc57829003601f168201915b505050505081565b60026020528060005260406000206000915054906101000a900473ffffffffffffffffffffffffffffffffffffffff1681565b6000610c5f826118ea565b90506000816000015190508073ffffffffffffffffffffffffffffffffffffffff163373ffffffffffffffffffffffffffffffffffffffff1614158015610d2d5750600360008273ffffffffffffffffffffffffffffffffffffffff1673ffffffffffffffffffffffffffffffffffffffff16815260200190815260200160002060003373ffffffffffffffffffffffffffffffffffffffff1673ffffffffffffffffffffffffffffffffffffffff16815260200190815260200160002060009054906101000a900460ff16155b80610d3957508160a001515b15610d70576040517f4fb505aa00000000000000000000000000000000000000000000000000000000815260040160405180910390fd5b836002600085815260200190815260200160002060006101000a81548173ffffffffffffffffffffffffffffffffffffffff021916908373ffffffffffffffffffffffffffffffffffffffff160217905550828473ffffffffffffffffffffffffffffffffffffffff168273ffffffffffffffffffffffffffffffffffffffff167f8c5be1e5ebec7d5bd14f71427d1e84f3dd0314c0f7b2291e5b200ac8c7c3b92560405160405180910390a450505050565b6000600554600454610e359190614617565b905090565b60026009541415610e80576040517f08c379a0000000000000000000000000000000000000000000000000000000008152600401610e7790614450565b60405180910390fd5b6002600981905550600081148015610ea65750600d5482600454610ea49190614617565b115b15610edd576040517fd05cb60900000000000000000000000000000000000000000000000000000000815260040160405180910390fd5b600181148015610efb5750600d5482600554610ef99190614617565b115b15610f32576040517fd05cb60900000000000000000000000000000000000000000000000000000000815260040160405180910390fd5b610f3d33838361347a565b60016009819055505050565b600b6020528060005260406000206000915090505481565b6000600760008373ffffffffffffffffffffffffffffffffffffffff1673ffffffffffffffffffffffffffffffffffffffff16815260200190815260200160002060000160059054906101000a900464ffffffffff1664ffffffffff169050919050565b6000610fd0826118ea565b905060008160000151905060008173ffffffffffffffffffffffffffffffffffffffff163373ffffffffffffffffffffffffffffffffffffffff16148061109d5750600360008373ffffffffffffffffffffffffffffffffffffffff1673ffffffffffffffffffffffffffffffffffffffff16815260200190815260200160002060003373ffffffffffffffffffffffffffffffffffffffff1673ffffffffffffffffffffffffffffffffffffffff16815260200190815260200160002060009054906101000a900460ff165b8061110657503373ffffffffffffffffffffffffffffffffffffffff166002600086815260200190815260200160002060009054906101000a900473ffffffffffffffffffffffffffffffffffffffff1673ffffffffffffffffffffffffffffffffffffffff16145b90508061113f576040517f4fb505aa00000000000000000000000000000000000000000000000000000000815260040160405180910390fd5b600073ffffffffffffffffffffffffffffffffffffffff168573ffffffffffffffffffffffffffffffffffffffff1614156111a6576040517fea553b3400000000000000000000000000000000000000000000000000000000815260040160405180910390fd5b8573ffffffffffffffffffffffffffffffffffffffff168273ffffffffffffffffffffffffffffffffffffffff161461120b576040517fa114810000000000000000000000000000000000000000000000000000000000815260040160405180910390fd5b8260a0015115611247576040517f4637159500000000000000000000000000000000000000000000000000000000815260040160405180910390fd5b6002600085815260200190815260200160002060006101000a81549073ffffffffffffffffffffffffffffffffffffffff02191690558260c001511580156112f45750600073ffffffffffffffffffffffffffffffffffffffff166006600060018701815260200190815260200160002060000160009054906101000a900473ffffffffffffffffffffffffffffffffffffffff1673ffffffffffffffffffffffffffffffffffffffff16145b8015611305575061130484613ac6565b5b1561143957826006600086815260200190815260200160002060008201518160000160006101000a81548173ffffffffffffffffffffffffffffffffffffffff021916908373ffffffffffffffffffffffffffffffffffffffff16021790555060208201518160000160146101000a81548164ffffffffff021916908364ffffffffff16021790555060408201518160000160196101000a81548161ffff021916908361ffff160217905550606082015181600001601b6101000a81548161ffff021916908361ffff160217905550608082015181600001601d6101000a81548160ff021916908360ff16021790555060a082015181600001601e6101000a81548160ff02191690831515021790555060c082015181600001601f6101000a81548160ff0219169083151502179055509050505b60018360c001901515908115158152505084836000019073ffffffffffffffffffffffffffffffffffffffff16908173ffffffffffffffffffffffffffffffffffffffff1681525050826006600086815260200190815260200160002060008201518160000160006101000a81548173ffffffffffffffffffffffffffffffffffffffff021916908373ffffffffffffffffffffffffffffffffffffffff16021790555060208201518160000160146101000a81548164ffffffffff021916908364ffffffffff16021790555060408201518160000160196101000a81548161ffff021916908361ffff160217905550606082015181600001601b6101000a81548161ffff021916908361ffff160217905550608082015181600001601d6101000a81548160ff021916908360ff16021790555060a082015181600001601e6101000a81548160ff02191690831515021790555060c082015181600001601f6101000a81548160ff021916908315150217905550905050600760008773ffffffffffffffffffffffffffffffffffffffff1673ffffffffffffffffffffffffffffffffffffffff168152602001908152602001600020600001600081819054906101000a900464ffffffffff168092919061161390614819565b91906101000a81548164ffffffffff021916908364ffffffffff16021790555050600760008673ffffffffffffffffffffffffffffffffffffffff1673ffffffffffffffffffffffffffffffffffffffff168152602001908152602001600020600001600081819054906101000a900464ffffffffff1680929190611697906148ef565b91906101000a81548164ffffffffff021916908364ffffffffff16021790555050838573ffffffffffffffffffffffffffffffffffffffff168773ffffffffffffffffffffffffffffffffffffffff167fddf252ad1be2c89b69c2b068fc378daa952ba7f163c4a11628f55a4df523b3ef60405160405180910390a4505050505050565b6000806020600a600085815260200190815260200160002054901c905061174181613b30565b915050919050565b61176483838360405180602001604052806000815250612353565b505050565b6000806023600a600085815260200190815260200160002054901c90506203ffff8116915050919050565b600061179f826118ea565b90503373ffffffffffffffffffffffffffffffffffffffff16816000015173ffffffffffffffffffffffffffffffffffffffff161461180a576040517f5cd8319200000000000000000000000000000000000000000000000000000000815260040160405180910390fd5b8060a0015115611846576040517f4637159500000000000000000000000000000000000000000000000000000000815260040160405180910390fd5b6000600c600081548092919061185b906148a6565b9190505590506000603542901b84179050600160066000868152602001908152602001600020600001601e6101000a81548160ff02191690831515021790555080600a60008481526020019081526020016000208190555050505050565b60045481565b6000806118cb836118ea565b90508060a001516118e05780600001516118e2565b305b915050919050565b6118f2613c99565b6118fb82613ac6565b611931576040517fb1d04f0800000000000000000000000000000000000000000000000000000000815260040160405180910390fd5b60008290505b600660008281526020019081526020016000206040518060e00160405290816000820160009054906101000a900473ffffffffffffffffffffffffffffffffffffffff1673ffffffffffffffffffffffffffffffffffffffff1673ffffffffffffffffffffffffffffffffffffffff1681526020016000820160149054906101000a900464ffffffffff1664ffffffffff1664ffffffffff1681526020016000820160199054906101000a900461ffff1661ffff1661ffff16815260200160008201601b9054906101000a900461ffff1661ffff1661ffff16815260200160008201601d9054906101000a900460ff1660ff1660ff16815260200160008201601e9054906101000a900460ff1615151515815260200160008201601f9054906101000a900460ff1615151515815250509150600073ffffffffffffffffffffffffffffffffffffffff16826000015173ffffffffffffffffffffffffffffffffffffffff1614611ac65780831415611aaf5750611ad9565b60008260a001901515908115158152505050611ad9565b8080611ad1906147ef565b915050611937565b919050565b60008073ffffffffffffffffffffffffffffffffffffffff168273ffffffffffffffffffffffffffffffffffffffff161415611b46576040517fcbe7266800000000000000000000000000000000000000000000000000000000815260040160405180910390fd5b600760008373ffffffffffffffffffffffffffffffffffffffff1673ffffffffffffffffffffffffffffffffffffffff16815260200190815260200160002060000160009054906101000a900464ffffffffff1664ffffffffff169050919050565b611bb0613bcb565b73ffffffffffffffffffffffffffffffffffffffff16611bce611d5c565b73ffffffffffffffffffffffffffffffffffffffff1614611c24576040517f08c379a0000000000000000000000000000000000000000000000000000000008152600401611c1b90614410565b60405180910390fd5b611c2e6000613bd3565b565b600080600760008473ffffffffffffffffffffffffffffffffffffffff1673ffffffffffffffffffffffffffffffffffffffff1681526020019081526020016000206040518060600160405290816000820160009054906101000a900464ffffffffff1664ffffffffff1664ffffffffff1681526020016000820160059054906101000a900464ffffffffff1664ffffffffff1664ffffffffff16815260200160008201600a9054906101000a900464ffffffffff1664ffffffffff1664ffffffffff1681525050905080604001518160000151611d0e919061466d565b64ffffffffff16915050919050565b600080600454600554915091509091565b600a6020528060005260406000206000915090505481565b6000611d51826118ea565b600001519050919050565b6000600860009054906101000a900473ffffffffffffffffffffffffffffffffffffffff16905090565b60018054611d9390614843565b80601f0160208091040260200160405190810160405280929190818152602001828054611dbf90614843565b8015611e0c5780601f10611de157610100808354040283529160200191611e0c565b820191906000526020600020905b815481529060010190602001808311611def57829003601f168201915b505050505081565b6000600a60008481526020019081526020016000205490506000611e3b602083901c613b30565b90506000611e48846118ea565b905060008390506000601085901c90506000603586901c9050868361ffff1614158015611e795750868261ffff1614155b15611e8357600080fd5b3373ffffffffffffffffffffffffffffffffffffffff16846000015173ffffffffffffffffffffffffffffffffffffffff1614611ebf57600080fd5b600e548164ffffffffff1642611ed591906146d9565b1015611ee057600080fd5b60008514611eed57600080fd5b8560016000602189901c161717600a60008a8152602001908152602001600020819055505050505050505050565b80600360003373ffffffffffffffffffffffffffffffffffffffff1673ffffffffffffffffffffffffffffffffffffffff16815260200190815260200160002060008473ffffffffffffffffffffffffffffffffffffffff1673ffffffffffffffffffffffffffffffffffffffff16815260200190815260200160002060006101000a81548160ff0219169083151502179055508173ffffffffffffffffffffffffffffffffffffffff163373ffffffffffffffffffffffffffffffffffffffff167f17307eab39ab6107e8899845ad3d59bd9653f200f220920489ca2b5937696c318360405161200c91906143b3565b60405180910390a35050565b60055481565b6000600a6000838152602001908152602001600020549050919050565b6000600760008373ffffffffffffffffffffffffffffffffffffffff1673ffffffffffffffffffffffffffffffffffffffff168152602001908152602001600020600001600a9054906101000a900464ffffffffff1664ffffffffff169050919050565b6000806000600a600085815260200190815260200160002054905060008190506000601083901c9050818194509450505050915091565b6000600a6000848152602001908152602001600020549050600081905060006121028261ffff166118ea565b9050600061210f856118ea565b9050600c54861061214c576040517fbb97cc9b00000000000000000000000000000000000000000000000000000000815260040160405180910390fd5b60006010600a600089815260200190815260200160002054901c61ffff16146121a1576040517fba26162b00000000000000000000000000000000000000000000000000000000815260040160405180910390fd5b8060a00151156121dd576040517f4637159500000000000000000000000000000000000000000000000000000000815260040160405180910390fd5b3373ffffffffffffffffffffffffffffffffffffffff16816000015173ffffffffffffffffffffffffffffffffffffffff1614612246576040517f5cd8319200000000000000000000000000000000000000000000000000000000815260040160405180910390fd5b816080015160ff16816080015160ff16141561228e576040517f011a413500000000000000000000000000000000000000000000000000000000815260040160405180910390fd5b806000015173ffffffffffffffffffffffffffffffffffffffff16826000015173ffffffffffffffffffffffffffffffffffffffff1614156122cf57600080fd5b600160066000878152602001908152602001600020600001601e6101000a81548160ff021916908315150217905550601085901b600a600088815260200190815260200160002060008282541792505081905550505050505050565b60006038600a600084815260200190815260200160002054901c64ffffffffff169050919050565b61235e848484610fc5565b60008373ffffffffffffffffffffffffffffffffffffffff163b1415801561245b575063150b7a0260e01b7bffffffffffffffffffffffffffffffffffffffffffffffffffffffff19168373ffffffffffffffffffffffffffffffffffffffff1663150b7a02338786866040518563ffffffff1660e01b81526004016123e79493929190614345565b602060405180830381600087803b15801561240157600080fd5b505af1158015612415573d6000803e3d6000fd5b505050506040513d601f19601f820116820180604052508101906124399190613fb8565b7bffffffffffffffffffffffffffffffffffffffffffffffffffffffff191614155b15612492576040517fd1a57ed600000000000000000000000000000000000000000000000000000000815260040160405180910390fd5b50505050565b600d5481565b6124a6613bcb565b73ffffffffffffffffffffffffffffffffffffffff166124c4611d5c565b73ffffffffffffffffffffffffffffffffffffffff161461251a576040517f08c379a000000000000000000000000000000000000000000000000000000000815260040161251190614410565b60405180910390fd5b80600e8190555050565b606061252f82613ac6565b61253857600080fd5b6000612543836118ea565b90506000816080015160ff161415612593576040518060400160405280600181526020017f58000000000000000000000000000000000000000000000000000000000000008152509150506125cd565b6040518060400160405280600181526020017f4f000000000000000000000000000000000000000000000000000000000000008152509150505b919050565b606060008083146127025760018314612673573073ffffffffffffffffffffffffffffffffffffffff16637168fcea856040518263ffffffff1660e01b815260040161261e919061432a565b60206040518083038186803b15801561263657600080fd5b505afa15801561264a573d6000803e3d6000fd5b505050506040513d601f19601f8201168201806040525081019061266e919061400a565b6126fd565b3073ffffffffffffffffffffffffffffffffffffffff1663a3645660856040518263ffffffff1660e01b81526004016126ac919061432a565b60206040518083038186803b1580156126c457600080fd5b505afa1580156126d8573d6000803e3d6000fd5b505050506040513d601f19601f820116820180604052508101906126fc919061400a565b5b61278c565b3073ffffffffffffffffffffffffffffffffffffffff166370a08231856040518263ffffffff1660e01b815260040161273b919061432a565b60206040518083038186803b15801561275357600080fd5b505afa158015612767573d6000803e3d6000fd5b505050506040513d601f19601f8201168201806040525081019061278b919061400a565b5b905060008167ffffffffffffffff8111156127d0577f4e487b7100000000000000000000000000000000000000000000000000000000600052604160045260246000fd5b6040519080825280602002602001820160405280156127fe5781602001602082028036833780820191505090505b5090506000821415612814578092505050612969565b600061281e613c99565b60007f000000000000000000000000000000000000000000000000000000000000000090505b7f000000000000000000000000000000000000000000000000000000000000000061286d610e23565b018110156129605761287e816118ea565b9150816000015173ffffffffffffffffffffffffffffffffffffffff168873ffffffffffffffffffffffffffffffffffffffff161415612955576000871480156128ca57508160a00151155b806128e257506001871480156128e157508160a001515b5b806128ed5750600287145b156129545780848480600101955081518110612932577f4e487b7100000000000000000000000000000000000000000000000000000000600052603260045260246000fd5b60200260200101818152505082851415612953578395505050505050612969565b5b5b806001019050612844565b50829450505050505b92915050565b60008060007f000000000000000000000000000000000000000000000000000000000000000090505b6129a0610e23565b7f0000000000000000000000000000000000000000000000000000000000000000018110156129ed576129d2816118ea565b60a00151156129e2578160010191505b806001019050612998565b508091505090565b600080600a60008481526020019081526020016000205490506000602082901c90506001811692505050919050565b60608060005b600c54811015612aa057600a600082815260200190815260200160002054828281518110612a81577f4e487b7100000000000000000000000000000000000000000000000000000000600052603260045260246000fd5b6020026020010181815250508080612a98906148a6565b915050612a2a565b508091505090565b6000600a60008481526020019081526020016000205490506000602082901c905060008290506000601084901c905060008463ffffffff1690506000612af18461ffff166118ea565b90506000612b028461ffff166118ea565b9050816000015173ffffffffffffffffffffffffffffffffffffffff163373ffffffffffffffffffffffffffffffffffffffff16148015612b465750600060018716145b80612b8e5750806000015173ffffffffffffffffffffffffffffffffffffffff163373ffffffffffffffffffffffffffffffffffffffff16148015612b8d57506001808716145b5b612bcd576040517f08c379a0000000000000000000000000000000000000000000000000000000008152600401612bc490614430565b60405180910390fd5b60006003600188901c1614612be157600080fd5b60098810612c24576040517f08c379a0000000000000000000000000000000000000000000000000000000008152600401612c1b90614470565b60405180910390fd5b6000600360018a901b600389901c901c1614612c3f57600080fd5b816000015173ffffffffffffffffffffffffffffffffffffffff163373ffffffffffffffffffffffffffffffffffffffff16148015612c815750600060018716145b15612cb6576001861795506003600189901b612c9d9190614617565b6001808a901b600389901c901c17901b86179550612d02565b7ffffffffffffffffffffffffffffffffffffffffffffffffffffffffffffffffe861695506003600189901b612cec9190614617565b600360018a901b600389901c901c17901b861795505b6000612d0d87613b30565b9050600281141561301857600182604001818151612d2b91906145df565b91509061ffff16908161ffff168152505060008260a0019015159081151581525050600183606001818151612d6091906145df565b91509061ffff16908161ffff16815250508160800151836080019060ff16908160ff168152505082600660008861ffff16815260200190815260200160002060008201518160000160006101000a81548173ffffffffffffffffffffffffffffffffffffffff021916908373ffffffffffffffffffffffffffffffffffffffff16021790555060208201518160000160146101000a81548164ffffffffff021916908364ffffffffff16021790555060408201518160000160196101000a81548161ffff021916908361ffff160217905550606082015181600001601b6101000a81548161ffff021916908361ffff160217905550608082015181600001601d6101000a81548160ff021916908360ff16021790555060a082015181600001601e6101000a81548160ff02191690831515021790555060c082015181600001601f6101000a81548160ff02191690831515021790555090505081600660008761ffff16815260200190815260200160002060008201518160000160006101000a81548173ffffffffffffffffffffffffffffffffffffffff021916908373ffffffffffffffffffffffffffffffffffffffff16021790555060208201518160000160146101000a81548164ffffffffff021916908364ffffffffff16021790555060408201518160000160196101000a81548161ffff021916908361ffff160217905550606082015181600001601b6101000a81548161ffff021916908361ffff160217905550608082015181600001601d6101000a81548160ff021916908360ff16021790555060a082015181600001601e6101000a81548160ff02191690831515021790555060c082015181600001601f6101000a81548160ff021916908315150217905550905050602060068817901b600a60008c815260200190815260200160002060008282541792505081905550613341565b60018114156133215760018360400181815161303491906145df565b91509061ffff16908161ffff168152505060008360a001901515908115158152505060018260600181815161306991906145df565b91509061ffff16908161ffff16815250508260800151826080019060ff16908160ff168152505082600660008861ffff16815260200190815260200160002060008201518160000160006101000a81548173ffffffffffffffffffffffffffffffffffffffff021916908373ffffffffffffffffffffffffffffffffffffffff16021790555060208201518160000160146101000a81548164ffffffffff021916908364ffffffffff16021790555060408201518160000160196101000a81548161ffff021916908361ffff160217905550606082015181600001601b6101000a81548161ffff021916908361ffff160217905550608082015181600001601d6101000a81548160ff021916908360ff16021790555060a082015181600001601e6101000a81548160ff02191690831515021790555060c082015181600001601f6101000a81548160ff02191690831515021790555090505081600660008761ffff16815260200190815260200160002060008201518160000160006101000a81548173ffffffffffffffffffffffffffffffffffffffff021916908373ffffffffffffffffffffffffffffffffffffffff16021790555060208201518160000160146101000a81548164ffffffffff021916908364ffffffffff16021790555060408201518160000160196101000a81548161ffff021916908361ffff160217905550606082015181600001601b6101000a81548161ffff021916908361ffff160217905550608082015181600001601d6101000a81548160ff021916908360ff16021790555060a082015181600001601e6101000a81548160ff02191690831515021790555060c082015181600001601f6101000a81548160ff021916908315150217905550905050602060048817901b600a60008c815260200190815260200160002060008282541792505081905550613340565b83602088901b17600a60008c8152602001908152602001600020819055505b5b50505050505050505050565b60036020528160005260406000206020528060005260406000206000915091509054906101000a900460ff1681565b600e5481565b61338a613bcb565b73ffffffffffffffffffffffffffffffffffffffff166133a8611d5c565b73ffffffffffffffffffffffffffffffffffffffff16146133fe576040517f08c379a00000000000000000000000000000000000000000000000000000000081526004016133f590614410565b60405180910390fd5b600073ffffffffffffffffffffffffffffffffffffffff168173ffffffffffffffffffffffffffffffffffffffff16141561346e576040517f08c379a0000000000000000000000000000000000000000000000000000000008152600401613465906143f0565b60405180910390fd5b61347781613bd3565b50565b60008082141561348e576004549050613494565b60055490505b60006005546004547f0000000000000000000000000000000000000000000000000000000000000000010190506000600760008773ffffffffffffffffffffffffffffffffffffffff1673ffffffffffffffffffffffffffffffffffffffff1681526020019081526020016000206040518060600160405290816000820160009054906101000a900464ffffffffff1664ffffffffff1664ffffffffff1681526020016000820160059054906101000a900464ffffffffff1664ffffffffff1664ffffffffff16815260200160008201600a9054906101000a900464ffffffffff1664ffffffffff1664ffffffffff16815250509050600073ffffffffffffffffffffffffffffffffffffffff168673ffffffffffffffffffffffffffffffffffffffff1614156135f1576040517f2e07630000000000000000000000000000000000000000000000000000000000815260040160405180910390fd5b600085141561362c576040517fb562e8dd00000000000000000000000000000000000000000000000000000000815260040160405180910390fd5b6001841115613667576040517fa1e9dd9d00000000000000000000000000000000000000000000000000000000815260040160405180910390fd5b7f000000000000000000000000000000000000000000000000000000000000000085840111156136c3576040517fed70473800000000000000000000000000000000000000000000000000000000815260040160405180910390fd5b7f000000000000000000000000000000000000000000000000000000000000000085826020015164ffffffffff1601118015613717575060003073ffffffffffffffffffffffffffffffffffffffff163b14155b1561374e576040517fd7fac8c700000000000000000000000000000000000000000000000000000000815260040160405180910390fd5b3373ffffffffffffffffffffffffffffffffffffffff168673ffffffffffffffffffffffffffffffffffffffff1614156137a35784816020018181510191509064ffffffffff16908164ffffffffff16815250505b60006040518060e001604052808873ffffffffffffffffffffffffffffffffffffffff168152602001600064ffffffffff168152602001600061ffff168152602001600061ffff1681526020018660ff168152602001600015158152602001600188141515815250905085826000018181510191509064ffffffffff16908164ffffffffff168152505060005b868110156138a1578084018873ffffffffffffffffffffffffffffffffffffffff16600073ffffffffffffffffffffffffffffffffffffffff167fddf252ad1be2c89b69c2b068fc378daa952ba7f163c4a11628f55a4df523b3ef60405160405180910390a4806001019050613830565b5081600760008973ffffffffffffffffffffffffffffffffffffffff1673ffffffffffffffffffffffffffffffffffffffff16815260200190815260200160002060008201518160000160006101000a81548164ffffffffff021916908364ffffffffff16021790555060208201518160000160056101000a81548164ffffffffff021916908364ffffffffff160217905550604082015181600001600a6101000a81548164ffffffffff021916908364ffffffffff160217905550905050806006600085815260200190815260200160002060008201518160000160006101000a81548173ffffffffffffffffffffffffffffffffffffffff021916908373ffffffffffffffffffffffffffffffffffffffff16021790555060208201518160000160146101000a81548164ffffffffff021916908364ffffffffff16021790555060408201518160000160196101000a81548161ffff021916908361ffff160217905550606082015181600001601b6101000a81548161ffff021916908361ffff160217905550608082015181600001601d6101000a81548160ff021916908360ff16021790555060a082015181600001601e6101000a81548160ff02191690831515021790555060c082015181600001601f6101000a81548160ff0219169083151502179055509050506000851415613aac5785600460008282540192505081905550613abd565b856005600082825401925050819055505b50505050505050565b6000817f000000000000000000000000000000000000000000000000000000000000000011158015613b295750613afb610e23565b7f0000000000000000000000000000000000000000000000000000000000000000613b269190614617565b82105b9050919050565b6000600482901c91506000700fc003f00ccc186106187030306184003f905060006219048090505b60008214613bbf5760006203ffff83169050808186161415613b805760029350505050613bc6565b600381613b8d91906146a8565b8186161415613ba25760019350505050613bc6565b6007821685901c9450601283901c9250600382901c915050613b58565b6000925050505b919050565b600033905090565b6000600860009054906101000a900473ffffffffffffffffffffffffffffffffffffffff16905081600860006101000a81548173ffffffffffffffffffffffffffffffffffffffff021916908373ffffffffffffffffffffffffffffffffffffffff1602179055508173ffffffffffffffffffffffffffffffffffffffff168173ffffffffffffffffffffffffffffffffffffffff167f8be0079c531659141344cd1fd0a4f28419497f9722a3daafe3b4186f6b6457e060405160405180910390a35050565b6040518060e00160405280600073ffffffffffffffffffffffffffffffffffffffff168152602001600064ffffffffff168152602001600061ffff168152602001600061ffff168152602001600060ff1681526020016000151581526020016000151581525090565b6000613d15613d108461453d565b614518565b905082815260208101848484011115613d2d57600080fd5b613d388482856147ad565b509392505050565b600081359050613d4f81614add565b92915050565b600081359050613d6481614af4565b92915050565b600081359050613d7981614b0b565b92915050565b600081519050613d8e81614b0b565b92915050565b600082601f830112613da557600080fd5b8135613db5848260208601613d02565b91505092915050565b600081359050613dcd81614b22565b92915050565b600081519050613de281614b22565b92915050565b600060208284031215613dfa57600080fd5b6000613e0884828501613d40565b91505092915050565b60008060408385031215613e2457600080fd5b6000613e3285828601613d40565b9250506020613e4385828601613d40565b9150509250929050565b600080600060608486031215613e6257600080fd5b6000613e7086828701613d40565b9350506020613e8186828701613d40565b9250506040613e9286828701613dbe565b9150509250925092565b60008060008060808587031215613eb257600080fd5b6000613ec087828801613d40565b9450506020613ed187828801613d40565b9350506040613ee287828801613dbe565b925050606085013567ffffffffffffffff811115613eff57600080fd5b613f0b87828801613d94565b91505092959194509250565b60008060408385031215613f2a57600080fd5b6000613f3885828601613d40565b9250506020613f4985828601613d55565b9150509250929050565b60008060408385031215613f6657600080fd5b6000613f7485828601613d40565b9250506020613f8585828601613dbe565b9150509250929050565b600060208284031215613fa157600080fd5b6000613faf84828501613d6a565b91505092915050565b600060208284031215613fca57600080fd5b6000613fd884828501613d7f565b91505092915050565b600060208284031215613ff357600080fd5b600061400184828501613dbe565b91505092915050565b60006020828403121561401c57600080fd5b600061402a84828501613dd3565b91505092915050565b6000806040838503121561404657600080fd5b600061405485828601613dbe565b925050602061406585828601613dbe565b9150509250929050565b600061407b83836142ee565b60208301905092915050565b6140908161470d565b82525050565b61409f8161470d565b82525050565b60006140b08261457e565b6140ba81856145ac565b93506140c58361456e565b8060005b838110156140f65781516140dd888261406f565b97506140e88361459f565b9250506001810190506140c9565b5085935050505092915050565b61410c8161471f565b82525050565b61411b8161471f565b82525050565b600061412c82614589565b61413681856145bd565b93506141468185602086016147bc565b61414f816149d9565b840191505092915050565b600061416582614594565b61416f81856145ce565b935061417f8185602086016147bc565b614188816149d9565b840191505092915050565b60006141a06026836145ce565b91506141ab826149ea565b604082019050919050565b60006141c36020836145ce565b91506141ce82614a39565b602082019050919050565b60006141e6600d836145ce565b91506141f182614a62565b602082019050919050565b6000614209601f836145ce565b915061421482614a8b565b602082019050919050565b600061422c600c836145ce565b915061423782614ab4565b602082019050919050565b60e0820160008201516142586000850182614087565b50602082015161426b602085018261430c565b50604082015161427e60408501826142d0565b50606082015161429160608501826142d0565b5060808201516142a4608085018261431b565b5060a08201516142b760a0850182614103565b5060c08201516142ca60c0850182614103565b50505050565b6142d981614757565b82525050565b6142e881614757565b82525050565b6142f781614785565b82525050565b61430681614785565b82525050565b6143158161478f565b82525050565b614324816147a0565b82525050565b600060208201905061433f6000830184614096565b92915050565b600060808201905061435a6000830187614096565b6143676020830186614096565b61437460408301856142fd565b81810360608301526143868184614121565b905095945050505050565b600060208201905081810360008301526143ab81846140a5565b905092915050565b60006020820190506143c86000830184614112565b92915050565b600060208201905081810360008301526143e8818461415a565b905092915050565b6000602082019050818103600083015261440981614193565b9050919050565b60006020820190508181036000830152614429816141b6565b9050919050565b60006020820190508181036000830152614449816141d9565b9050919050565b60006020820190508181036000830152614469816141fc565b9050919050565b600060208201905081810360008301526144898161421f565b9050919050565b600060e0820190506144a56000830184614242565b92915050565b60006040820190506144c060008301856142df565b6144cd60208301846142df565b9392505050565b60006020820190506144e960008301846142fd565b92915050565b600060408201905061450460008301856142fd565b61451160208301846142fd565b9392505050565b6000614522614533565b905061452e8282614875565b919050565b6000604051905090565b600067ffffffffffffffff821115614558576145576149aa565b5b614561826149d9565b9050602081019050919050565b6000819050602082019050919050565b600081519050919050565b600081519050919050565b600081519050919050565b6000602082019050919050565b600082825260208201905092915050565b600082825260208201905092915050565b600082825260208201905092915050565b60006145ea82614757565b91506145f583614757565b92508261ffff0382111561460c5761460b61491d565b5b828201905092915050565b600061462282614785565b915061462d83614785565b9250827fffffffffffffffffffffffffffffffffffffffffffffffffffffffffffffffff038211156146625761466161491d565b5b828201905092915050565b60006146788261478f565b91506146838361478f565b92508264ffffffffff0382111561469d5761469c61491d565b5b828201905092915050565b60006146b382614785565b91506146be83614785565b9250826146ce576146cd61494c565b5b828204905092915050565b60006146e482614785565b91506146ef83614785565b9250828210156147025761470161491d565b5b828203905092915050565b600061471882614765565b9050919050565b60008115159050919050565b60007fffffffff0000000000000000000000000000000000000000000000000000000082169050919050565b600061ffff82169050919050565b600073ffffffffffffffffffffffffffffffffffffffff82169050919050565b6000819050919050565b600064ffffffffff82169050919050565b600060ff82169050919050565b82818337600083830152505050565b60005b838110156147da5780820151818401526020810190506147bf565b838111156147e9576000848401525b50505050565b60006147fa82614785565b9150600082141561480e5761480d61491d565b5b600182039050919050565b60006148248261478f565b915060008214156148385761483761491d565b5b600182039050919050565b6000600282049050600182168061485b57607f821691505b6020821081141561486f5761486e61497b565b5b50919050565b61487e826149d9565b810181811067ffffffffffffffff8211171561489d5761489c6149aa565b5b80604052505050565b60006148b182614785565b91507fffffffffffffffffffffffffffffffffffffffffffffffffffffffffffffffff8214156148e4576148e361491d565b5b600182019050919050565b60006148fa8261478f565b915064ffffffffff8214156149125761491161491d565b5b600182019050919050565b7f4e487b7100000000000000000000000000000000000000000000000000000000600052601160045260246000fd5b7f4e487b7100000000000000000000000000000000000000000000000000000000600052601260045260246000fd5b7f4e487b7100000000000000000000000000000000000000000000000000000000600052602260045260246000fd5b7f4e487b7100000000000000000000000000000000000000000000000000000000600052604160045260246000fd5b6000601f19601f8301169050919050565b7f4f776e61626c653a206e6577206f776e657220697320746865207a65726f206160008201527f6464726573730000000000000000000000000000000000000000000000000000602082015250565b7f4f776e61626c653a2063616c6c6572206973206e6f7420746865206f776e6572600082015250565b7f4e4f545f594f55525f5455524e00000000000000000000000000000000000000600082015250565b7f5265656e7472616e637947756172643a207265656e7472616e742063616c6c00600082015250565b7f496e76616c69645f6d6f76650000000000000000000000000000000000000000600082015250565b614ae68161470d565b8114614af157600080fd5b50565b614afd8161471f565b8114614b0857600080fd5b50565b614b148161472b565b8114614b1f57600080fd5b50565b614b2b81614785565b8114614b3657600080fd5b5056fea2646970667358221220b6650cecf46e31e10ebb08d611596aeec079a81f83b6ad10cc3a6142c59f723d64736f6c63430008040033",
  "linkReferences": {},
  "deployedLinkReferences": {}
}